{
  "address": "0x84C15F7c2241bf5815C4790310D317185680382D",
  "abi": [
    {
      "anonymous": false,
      "inputs": [
        {
          "indexed": false,
          "internalType": "uint256",
          "name": "id",
          "type": "uint256"
        },
        {
          "indexed": false,
          "internalType": "address",
          "name": "creator",
          "type": "address"
        },
        {
          "indexed": false,
          "internalType": "string",
          "name": "title",
          "type": "string"
        },
        {
          "indexed": false,
          "internalType": "string",
          "name": "description",
          "type": "string"
        },
        {
          "indexed": false,
          "internalType": "enum ProposalType",
          "name": "proposalType",
          "type": "uint8"
        },
        {
          "indexed": false,
          "internalType": "enum ProposalStatus",
          "name": "proposalStatus",
          "type": "uint8"
        },
        {
          "indexed": false,
          "internalType": "uint256",
          "name": "startDate",
          "type": "uint256"
        },
        {
          "indexed": false,
          "internalType": "uint256",
          "name": "duration",
          "type": "uint256"
        },
        {
          "components": [
            {
              "internalType": "uint256",
              "name": "index",
              "type": "uint256"
            },
            {
              "internalType": "string",
              "name": "optionText",
              "type": "string"
            },
            {
              "internalType": "uint256",
              "name": "vote",
              "type": "uint256"
            }
          ],
          "indexed": false,
          "internalType": "struct Option[]",
          "name": "options",
          "type": "tuple[]"
        }
      ],
      "name": "ProposalCreated",
      "type": "event"
    },
    {
      "inputs": [
        {
          "internalType": "string",
          "name": "_title",
          "type": "string"
        },
        {
          "internalType": "string",
          "name": "_description",
          "type": "string"
        },
        {
          "internalType": "uint256",
          "name": "_proposalType",
          "type": "uint256"
        },
        {
          "internalType": "uint256",
          "name": "_proposalStatus",
          "type": "uint256"
        },
        {
          "internalType": "uint256",
          "name": "_startDate",
          "type": "uint256"
        },
        {
          "internalType": "uint256",
          "name": "_duration",
          "type": "uint256"
        },
        {
          "components": [
            {
              "internalType": "uint256",
              "name": "index",
              "type": "uint256"
            },
            {
              "internalType": "string",
              "name": "optionText",
              "type": "string"
            },
            {
              "internalType": "uint256",
              "name": "vote",
              "type": "uint256"
            }
          ],
          "internalType": "struct Option[]",
          "name": "_options",
          "type": "tuple[]"
        }
      ],
      "name": "createProposal",
      "outputs": [],
      "stateMutability": "nonpayable",
      "type": "function"
    },
    {
      "inputs": [],
      "name": "deletePreviousData",
      "outputs": [],
      "stateMutability": "nonpayable",
      "type": "function"
    },
    {
      "inputs": [
        {
          "internalType": "uint256",
          "name": "id",
          "type": "uint256"
        }
      ],
      "name": "getOptions",
      "outputs": [
        {
          "components": [
            {
              "internalType": "uint256",
              "name": "index",
              "type": "uint256"
            },
            {
              "internalType": "string",
              "name": "optionText",
              "type": "string"
            },
            {
              "internalType": "uint256",
              "name": "vote",
              "type": "uint256"
            }
          ],
          "internalType": "struct Option[]",
          "name": "",
          "type": "tuple[]"
        }
      ],
      "stateMutability": "view",
      "type": "function"
    },
    {
      "inputs": [
        {
          "internalType": "uint256",
          "name": "proposalId",
          "type": "uint256"
        }
      ],
      "name": "getProposals",
      "outputs": [
        {
          "components": [
            {
              "internalType": "uint256",
              "name": "id",
              "type": "uint256"
            },
            {
              "internalType": "address",
              "name": "creator",
              "type": "address"
            },
            {
              "internalType": "string",
              "name": "title",
              "type": "string"
            },
            {
              "internalType": "string",
              "name": "description",
              "type": "string"
            },
            {
              "internalType": "enum ProposalType",
              "name": "proposalType",
              "type": "uint8"
            },
            {
              "internalType": "enum ProposalStatus",
              "name": "proposalStatus",
              "type": "uint8"
            },
            {
              "internalType": "uint256",
              "name": "startDate",
              "type": "uint256"
            },
            {
              "internalType": "uint256",
              "name": "duration",
              "type": "uint256"
            },
            {
              "components": [
                {
                  "internalType": "uint256",
                  "name": "index",
                  "type": "uint256"
                },
                {
                  "internalType": "string",
                  "name": "optionText",
                  "type": "string"
                },
                {
                  "internalType": "uint256",
                  "name": "vote",
                  "type": "uint256"
                }
              ],
              "internalType": "struct Option[]",
              "name": "options",
              "type": "tuple[]"
            },
            {
              "components": [
                {
                  "internalType": "address",
                  "name": "voterAddress",
                  "type": "address"
                },
                {
                  "internalType": "uint256[]",
                  "name": "optionIndexes",
                  "type": "uint256[]"
                },
                {
                  "internalType": "uint256[]",
                  "name": "optionVotes",
                  "type": "uint256[]"
                }
              ],
              "internalType": "struct Voter[]",
              "name": "voters",
              "type": "tuple[]"
            }
          ],
          "internalType": "struct Proposal",
          "name": "",
          "type": "tuple"
        }
      ],
      "stateMutability": "view",
      "type": "function"
    },
    {
      "inputs": [],
      "name": "getProposalsId",
      "outputs": [
        {
          "internalType": "uint256[]",
          "name": "",
          "type": "uint256[]"
        }
      ],
      "stateMutability": "view",
      "type": "function"
    },
    {
      "inputs": [
        {
          "internalType": "uint256",
          "name": "id",
          "type": "uint256"
        }
      ],
      "name": "getVoters",
      "outputs": [
        {
          "components": [
            {
              "internalType": "address",
              "name": "voterAddress",
              "type": "address"
            },
            {
              "internalType": "uint256[]",
              "name": "optionIndexes",
              "type": "uint256[]"
            },
            {
              "internalType": "uint256[]",
              "name": "optionVotes",
              "type": "uint256[]"
            }
          ],
          "internalType": "struct Voter[]",
          "name": "",
          "type": "tuple[]"
        }
      ],
      "stateMutability": "view",
      "type": "function"
    },
    {
      "inputs": [
        {
          "internalType": "address",
          "name": "larTokenAddress",
          "type": "address"
        }
      ],
      "name": "initializeDao",
      "outputs": [],
      "stateMutability": "nonpayable",
      "type": "function"
    },
    {
      "inputs": [
        {
          "internalType": "address",
          "name": "receiver",
          "type": "address"
        }
      ],
      "name": "sendLAR",
      "outputs": [],
      "stateMutability": "nonpayable",
      "type": "function"
    }
  ],
  "transactionHash": "0xcfac81ed2eee0fa063da21d7ac816d0f843affb1a42f640b9415aabe1d233435",
  "args": [],
  "numDeployments": 1,
  "solcInputHash": "1486e01ec861b432f083d9365e90fed5",
  "bytecode": "0x608060405234801561001057600080fd5b506001600081905550612b62806100286000396000f3fe608060405234801561001057600080fd5b50600436106100885760003560e01c806386b646f21161005b57806386b646f2146101015780638915b3fb14610131578063c36954ba14610161578063e16659941461017d57610088565b80632c72fdfc1461008d5780632f7b73de146100bd57806375db2e07146100d95780637e48f5af146100e3575b600080fd5b6100a760048036038101906100a291906116f4565b610199565b6040516100b49190611c89565b60405180910390f35b6100d760048036038101906100d29190611cd7565b610642565b005b6100e1610689565b005b6100eb610824565b6040516100f89190611d73565b60405180910390f35b61011b600480360381019061011691906116f4565b61087f565b6040516101289190611e1b565b60405180910390f35b61014b600480360381019061014691906116f4565b6109fd565b6040516101589190611ec3565b60405180910390f35b61017b60048036038101906101769190611cd7565b610b1b565b005b6101976004803603810190610192919061218a565b610bcb565b005b6101a1611220565b6001600601600083815260200190815260200160002060405180610140016040529081600082015481526020016001820160009054906101000a900473ffffffffffffffffffffffffffffffffffffffff1673ffffffffffffffffffffffffffffffffffffffff1673ffffffffffffffffffffffffffffffffffffffff168152602001600282018054610233906122af565b80601f016020809104026020016040519081016040528092919081815260200182805461025f906122af565b80156102ac5780601f10610281576101008083540402835291602001916102ac565b820191906000526020600020905b81548152906001019060200180831161028f57829003601f168201915b505050505081526020016003820180546102c5906122af565b80601f01602080910402602001604051908101604052809291908181526020018280546102f1906122af565b801561033e5780601f106103135761010080835404028352916020019161033e565b820191906000526020600020905b81548152906001019060200180831161032157829003601f168201915b505050505081526020016004820160009054906101000a900460ff16600281111561036c5761036b611801565b5b600281111561037e5761037d611801565b5b81526020016004820160019054906101000a900460ff1660028111156103a7576103a6611801565b5b60028111156103b9576103b8611801565b5b8152602001600582015481526020016006820154815260200160078201805480602002602001604051908101604052809291908181526020016000905b828210156104ce578382906000526020600020906003020160405180606001604052908160008201548152602001600182018054610433906122af565b80601f016020809104026020016040519081016040528092919081815260200182805461045f906122af565b80156104ac5780601f10610481576101008083540402835291602001916104ac565b820191906000526020600020905b81548152906001019060200180831161048f57829003601f168201915b50505050508152602001600282015481525050815260200190600101906103f6565b50505050815260200160088201805480602002602001604051908101604052809291908181526020016000905b8282101561063357838290600052602060002090600302016040518060600160405290816000820160009054906101000a900473ffffffffffffffffffffffffffffffffffffffff1673ffffffffffffffffffffffffffffffffffffffff1673ffffffffffffffffffffffffffffffffffffffff168152602001600182018054806020026020016040519081016040528092919081815260200182805480156105c357602002820191906000526020600020905b8154815260200190600101908083116105af575b505050505081526020016002820180548060200260200160405190810160405280929190818152602001828054801561061b57602002820191906000526020600020905b815481526020019060010190808311610607575b505050505081525050815260200190600101906104fb565b50505050815250509050919050565b80600160040160006101000a81548173ffffffffffffffffffffffffffffffffffffffff021916908373ffffffffffffffffffffffffffffffffffffffff16021790555050565b61069161119a565b60040160009054906101000a900473ffffffffffffffffffffffffffffffffffffffff1673ffffffffffffffffffffffffffffffffffffffff163373ffffffffffffffffffffffffffffffffffffffff1614610722576040517f08c379a00000000000000000000000000000000000000000000000000000000081526004016107199061233d565b60405180910390fd5b60005b60016005015481101561080557600160060160008281526020019081526020016000206000808201600090556001820160006101000a81549073ffffffffffffffffffffffffffffffffffffffff021916905560028201600061078891906112ad565b60038201600061079891906112ad565b6004820160006101000a81549060ff02191690556004820160016101000a81549060ff0219169055600582016000905560068201600090556007820160006107e091906112ed565b6008820160006107f09190611311565b505080806107fd9061238c565b915050610725565b50600160080160006108179190611335565b6000600160050181905550565b6060600160090180548060200260200160405190810160405280929190818152602001828054801561087557602002820191906000526020600020905b815481526020019060010190808311610861575b5050505050905090565b606060016006016000838152602001908152602001600020600801805480602002602001604051908101604052809291908181526020016000905b828210156109f257838290600052602060002090600302016040518060600160405290816000820160009054906101000a900473ffffffffffffffffffffffffffffffffffffffff1673ffffffffffffffffffffffffffffffffffffffff1673ffffffffffffffffffffffffffffffffffffffff1681526020016001820180548060200260200160405190810160405280929190818152602001828054801561098257602002820191906000526020600020905b81548152602001906001019080831161096e575b50505050508152602001600282018054806020026020016040519081016040528092919081815260200182805480156109da57602002820191906000526020600020905b8154815260200190600101908083116109c6575b505050505081525050815260200190600101906108ba565b505050509050919050565b606060016006016000838152602001908152602001600020600701805480602002602001604051908101604052809291908181526020016000905b82821015610b10578382906000526020600020906003020160405180606001604052908160008201548152602001600182018054610a75906122af565b80601f0160208091040260200160405190810160405280929190818152602001828054610aa1906122af565b8015610aee5780601f10610ac357610100808354040283529160200191610aee565b820191906000526020600020905b815481529060010190602001808311610ad157829003601f168201915b5050505050815260200160028201548152505081526020019060010190610a38565b505050509050919050565b600160040160009054906101000a900473ffffffffffffffffffffffffffffffffffffffff1673ffffffffffffffffffffffffffffffffffffffff1663a9059cbb826802b5e3af16b18800006040518363ffffffff1660e01b8152600401610b84929190612428565b6020604051808303816000875af1158015610ba3573d6000803e3d6000fd5b505050506040513d601f19601f82011682018060405250810190610bc79190612489565b5050565b610bd36111c7565b674563918244f40000600160040160009054906101000a900473ffffffffffffffffffffffffffffffffffffffff1673ffffffffffffffffffffffffffffffffffffffff166370a08231336040518263ffffffff1660e01b8152600401610c3a91906124b6565b602060405180830381865afa158015610c57573d6000803e3d6000fd5b505050506040513d601f19601f82011682018060405250810190610c7b91906124e6565b1015610cbc576040517f08c379a0000000000000000000000000000000000000000000000000000000008152600401610cb390612585565b60405180910390fd5b600160040160009054906101000a900473ffffffffffffffffffffffffffffffffffffffff1673ffffffffffffffffffffffffffffffffffffffff166323b872dd3330674563918244f400006040518463ffffffff1660e01b8152600401610d26939291906125e0565b6020604051808303816000875af1158015610d45573d6000803e3d6000fd5b505050506040513d601f19601f82011682018060405250810190610d699190612489565b506000808603610d7c5760009050610d9c565b60018603610d8d5760019050610d9b565b60028603610d9a57600290505b5b5b6000808603610dae5760009050610dce565b60018603610dbf5760019050610dcd565b60028603610dcc57600290505b5b5b600060016006016000600160050154815260200190815260200160002090506001600501548160000181905550338160010160006101000a81548173ffffffffffffffffffffffffffffffffffffffff021916908373ffffffffffffffffffffffffffffffffffffffff16021790555089816002019081610e4f91906127b9565b5088816003019081610e6191906127b9565b50828160040160006101000a81548160ff02191690836002811115610e8957610e88611801565b5b0217905550818160040160016101000a81548160ff02191690836002811115610eb557610eb4611801565b5b021790555085816005018190555084816006018190555060005b8451811015610f65576000858281518110610eed57610eec61288b565b5b6020026020010151905082600701819080600181540180825580915050600190039060005260206000209060030201600090919091909150600082015181600001556020820151816001019081610f4491906127b9565b50604082015181600201555050508080610f5d9061238c565b915050610ecf565b506001600801819080600181540180825580915050600190039060005260206000209060090201600090919091909150600082015481600001556001820160009054906101000a900473ffffffffffffffffffffffffffffffffffffffff168160010160006101000a81548173ffffffffffffffffffffffffffffffffffffffff021916908373ffffffffffffffffffffffffffffffffffffffff1602179055506002820181600201908161101a91906128d0565b506003820181600301908161102f91906128d0565b506004820160009054906101000a900460ff168160040160006101000a81548160ff0219169083600281111561106857611067611801565b5b02179055506004820160019054906101000a900460ff168160040160016101000a81548160ff021916908360028111156110a5576110a4611801565b5b0217905550600582015481600501556006820154816006015560078201816007019080546110d4929190611359565b5060088201816008019080546110eb9291906113da565b50505060016009016001600501549080600181540180825580915050600190039060005260206000200160009091909190915055600160050160008154809291906111359061238c565b91905055507fdf54b3b6095f0e4bab834f1d5294b7cbcd9cd963191fb841d618e162d9f56fce600160050154338c8c87878c8c8c60405161117e99989796959493929190612a1e565b60405180910390a1505050611191611216565b50505050505050565b6000807fc8fcad8db84d3cc18b4c41d551ea0ee66dd599cde068d998e57d5e09332c131c90508091505090565b60026000540361120c576040517f08c379a000000000000000000000000000000000000000000000000000000000815260040161120390612b0c565b60405180910390fd5b6002600081905550565b6001600081905550565b60405180610140016040528060008152602001600073ffffffffffffffffffffffffffffffffffffffff16815260200160608152602001606081526020016000600281111561127257611271611801565b5b81526020016000600281111561128b5761128a611801565b5b8152602001600081526020016000815260200160608152602001606081525090565b5080546112b9906122af565b6000825580601f106112cb57506112ea565b601f0160209004906000526020600020908101906112e991906114c7565b5b50565b508054600082556003029060005260206000209081019061130e91906114e4565b50565b5080546000825560030290600052602060002090810190611332919061151b565b50565b50805460008255600902906000526020600020908101906113569190611579565b50565b8280548282559060005260206000209060030281019282156113c95760005260206000209160030282015b828111156113c857828260008201548160000155600182018160010190816113ac91906128d0565b5060028201548160020155505091600301919060030190611384565b5b5090506113d691906114e4565b5090565b8280548282559060005260206000209060030281019282156114b65760005260206000209160030282015b828111156114b55782826000820160009054906101000a900473ffffffffffffffffffffffffffffffffffffffff168160000160006101000a81548173ffffffffffffffffffffffffffffffffffffffff021916908373ffffffffffffffffffffffffffffffffffffffff160217905550600182018160010190805461148c929190611637565b5060028201816002019080546114a3929190611637565b50505091600301919060030190611405565b5b5090506114c3919061151b565b5090565b5b808211156114e05760008160009055506001016114c8565b5090565b5b808211156115175760008082016000905560018201600061150691906112ad565b6002820160009055506003016114e5565b5090565b5b8082111561157557600080820160006101000a81549073ffffffffffffffffffffffffffffffffffffffff021916905560018201600061155c9190611689565b60028201600061156c9190611689565b5060030161151c565b5090565b5b80821115611633576000808201600090556001820160006101000a81549073ffffffffffffffffffffffffffffffffffffffff02191690556002820160006115c291906112ad565b6003820160006115d291906112ad565b6004820160006101000a81549060ff02191690556004820160016101000a81549060ff02191690556005820160009055600682016000905560078201600061161a91906112ed565b60088201600061162a9190611311565b5060090161157a565b5090565b8280548282559060005260206000209081019282156116785760005260206000209182015b8281111561167757825482559160010191906001019061165c565b5b50905061168591906114c7565b5090565b50805460008255906000526020600020908101906116a791906114c7565b50565b6000604051905090565b600080fd5b600080fd5b6000819050919050565b6116d1816116be565b81146116dc57600080fd5b50565b6000813590506116ee816116c8565b92915050565b60006020828403121561170a576117096116b4565b5b6000611718848285016116df565b91505092915050565b61172a816116be565b82525050565b600073ffffffffffffffffffffffffffffffffffffffff82169050919050565b600061175b82611730565b9050919050565b61176b81611750565b82525050565b600081519050919050565b600082825260208201905092915050565b60005b838110156117ab578082015181840152602081019050611790565b60008484015250505050565b6000601f19601f8301169050919050565b60006117d382611771565b6117dd818561177c565b93506117ed81856020860161178d565b6117f6816117b7565b840191505092915050565b7f4e487b7100000000000000000000000000000000000000000000000000000000600052602160045260246000fd5b6003811061184157611840611801565b5b50565b600081905061185282611830565b919050565b600061186282611844565b9050919050565b61187281611857565b82525050565b6003811061188957611888611801565b5b50565b600081905061189a82611878565b919050565b60006118aa8261188c565b9050919050565b6118ba8161189f565b82525050565b600081519050919050565b600082825260208201905092915050565b6000819050602082019050919050565b60006060830160008301516119046000860182611721565b506020830151848203602086015261191c82826117c8565b91505060408301516119316040860182611721565b508091505092915050565b600061194883836118ec565b905092915050565b6000602082019050919050565b6000611968826118c0565b61197281856118cb565b935083602082028501611984856118dc565b8060005b858110156119c057848403895281516119a1858261193c565b94506119ac83611950565b925060208a01995050600181019050611988565b50829750879550505050505092915050565b600081519050919050565b600082825260208201905092915050565b6000819050602082019050919050565b600081519050919050565b600082825260208201905092915050565b6000819050602082019050919050565b6000611a368383611721565b60208301905092915050565b6000602082019050919050565b6000611a5a826119fe565b611a648185611a09565b9350611a6f83611a1a565b8060005b83811015611aa0578151611a878882611a2a565b9750611a9283611a42565b925050600181019050611a73565b5085935050505092915050565b6000606083016000830151611ac56000860182611762565b5060208301518482036020860152611add8282611a4f565b91505060408301518482036040860152611af78282611a4f565b9150508091505092915050565b6000611b108383611aad565b905092915050565b6000602082019050919050565b6000611b30826119d2565b611b3a81856119dd565b935083602082028501611b4c856119ee565b8060005b85811015611b885784840389528151611b698582611b04565b9450611b7483611b18565b925060208a01995050600181019050611b50565b50829750879550505050505092915050565b600061014083016000830151611bb36000860182611721565b506020830151611bc66020860182611762565b5060408301518482036040860152611bde82826117c8565b91505060608301518482036060860152611bf882826117c8565b9150506080830151611c0d6080860182611869565b5060a0830151611c2060a08601826118b1565b5060c0830151611c3360c0860182611721565b5060e0830151611c4660e0860182611721565b50610100830151848203610100860152611c60828261195d565b915050610120830151848203610120860152611c7c8282611b25565b9150508091505092915050565b60006020820190508181036000830152611ca38184611b9a565b905092915050565b611cb481611750565b8114611cbf57600080fd5b50565b600081359050611cd181611cab565b92915050565b600060208284031215611ced57611cec6116b4565b5b6000611cfb84828501611cc2565b91505092915050565b600082825260208201905092915050565b6000611d20826119fe565b611d2a8185611d04565b9350611d3583611a1a565b8060005b83811015611d66578151611d4d8882611a2a565b9750611d5883611a42565b925050600181019050611d39565b5085935050505092915050565b60006020820190508181036000830152611d8d8184611d15565b905092915050565b600082825260208201905092915050565b6000611db1826119d2565b611dbb8185611d95565b935083602082028501611dcd856119ee565b8060005b85811015611e095784840389528151611dea8582611b04565b9450611df583611b18565b925060208a01995050600181019050611dd1565b50829750879550505050505092915050565b60006020820190508181036000830152611e358184611da6565b905092915050565b600082825260208201905092915050565b6000611e59826118c0565b611e638185611e3d565b935083602082028501611e75856118dc565b8060005b85811015611eb15784840389528151611e92858261193c565b9450611e9d83611950565b925060208a01995050600181019050611e79565b50829750879550505050505092915050565b60006020820190508181036000830152611edd8184611e4e565b905092915050565b600080fd5b600080fd5b7f4e487b7100000000000000000000000000000000000000000000000000000000600052604160045260246000fd5b611f27826117b7565b810181811067ffffffffffffffff82111715611f4657611f45611eef565b5b80604052505050565b6000611f596116aa565b9050611f658282611f1e565b919050565b600067ffffffffffffffff821115611f8557611f84611eef565b5b611f8e826117b7565b9050602081019050919050565b82818337600083830152505050565b6000611fbd611fb884611f6a565b611f4f565b905082815260208101848484011115611fd957611fd8611eea565b5b611fe4848285611f9b565b509392505050565b600082601f83011261200157612000611ee5565b5b8135612011848260208601611faa565b91505092915050565b600067ffffffffffffffff82111561203557612034611eef565b5b602082029050602081019050919050565b600080fd5b600080fd5b600080fd5b60006060828403121561206b5761206a61204b565b5b6120756060611f4f565b90506000612085848285016116df565b600083015250602082013567ffffffffffffffff8111156120a9576120a8612050565b5b6120b584828501611fec565b60208301525060406120c9848285016116df565b60408301525092915050565b60006120e86120e38461201a565b611f4f565b9050808382526020820190506020840283018581111561210b5761210a612046565b5b835b8181101561215257803567ffffffffffffffff8111156121305761212f611ee5565b5b80860161213d8982612055565b8552602085019450505060208101905061210d565b5050509392505050565b600082601f83011261217157612170611ee5565b5b81356121818482602086016120d5565b91505092915050565b600080600080600080600060e0888a0312156121a9576121a86116b4565b5b600088013567ffffffffffffffff8111156121c7576121c66116b9565b5b6121d38a828b01611fec565b975050602088013567ffffffffffffffff8111156121f4576121f36116b9565b5b6122008a828b01611fec565b96505060406122118a828b016116df565b95505060606122228a828b016116df565b94505060806122338a828b016116df565b93505060a06122448a828b016116df565b92505060c088013567ffffffffffffffff811115612265576122646116b9565b5b6122718a828b0161215c565b91505092959891949750929550565b7f4e487b7100000000000000000000000000000000000000000000000000000000600052602260045260246000fd5b600060028204905060018216806122c757607f821691505b6020821081036122da576122d9612280565b5b50919050565b600082825260208201905092915050565b7f4f6e6c79206f776e65722063616e2064656c6574650000000000000000000000600082015250565b60006123276015836122e0565b9150612332826122f1565b602082019050919050565b600060208201905081810360008301526123568161231a565b9050919050565b7f4e487b7100000000000000000000000000000000000000000000000000000000600052601160045260246000fd5b6000612397826116be565b91507fffffffffffffffffffffffffffffffffffffffffffffffffffffffffffffffff82036123c9576123c861235d565b5b600182019050919050565b6123dd81611750565b82525050565b6000819050919050565b6000819050919050565b600061241261240d612408846123e3565b6123ed565b6116be565b9050919050565b612422816123f7565b82525050565b600060408201905061243d60008301856123d4565b61244a6020830184612419565b9392505050565b60008115159050919050565b61246681612451565b811461247157600080fd5b50565b6000815190506124838161245d565b92915050565b60006020828403121561249f5761249e6116b4565b5b60006124ad84828501612474565b91505092915050565b60006020820190506124cb60008301846123d4565b92915050565b6000815190506124e0816116c8565b92915050565b6000602082840312156124fc576124fb6116b4565b5b600061250a848285016124d1565b91505092915050565b7f4d696e696d756d206f662035204c4152206973206e656564656420746f20637260008201527f6561746520612070726f706f73616c0000000000000000000000000000000000602082015250565b600061256f602f836122e0565b915061257a82612513565b604082019050919050565b6000602082019050818103600083015261259e81612562565b9050919050565b6000819050919050565b60006125ca6125c56125c0846125a5565b6123ed565b6116be565b9050919050565b6125da816125af565b82525050565b60006060820190506125f560008301866123d4565b61260260208301856123d4565b61260f60408301846125d1565b949350505050565b60008190508160005260206000209050919050565b60006020601f8301049050919050565b600082821b905092915050565b6000600883026126797fffffffffffffffffffffffffffffffffffffffffffffffffffffffffffffffff8261263c565b612683868361263c565b95508019841693508086168417925050509392505050565b60006126b66126b16126ac846116be565b6123ed565b6116be565b9050919050565b6000819050919050565b6126d08361269b565b6126e46126dc826126bd565b848454612649565b825550505050565b600090565b6126f96126ec565b6127048184846126c7565b505050565b5b818110156127285761271d6000826126f1565b60018101905061270a565b5050565b601f82111561276d5761273e81612617565b6127478461262c565b81016020851015612756578190505b61276a6127628561262c565b830182612709565b50505b505050565b600082821c905092915050565b600061279060001984600802612772565b1980831691505092915050565b60006127a9838361277f565b9150826002028217905092915050565b6127c282611771565b67ffffffffffffffff8111156127db576127da611eef565b5b6127e582546122af565b6127f082828561272c565b600060209050601f8311600181146128235760008415612811578287015190505b61281b858261279d565b865550612883565b601f19841661283186612617565b60005b8281101561285957848901518255600182019150602085019450602081019050612834565b868310156128765784890151612872601f89168261277f565b8355505b6001600288020188555050505b505050505050565b7f4e487b7100000000000000000000000000000000000000000000000000000000600052603260045260246000fd5b6000815490506128c9816122af565b9050919050565b8181036128de5750506129b6565b6128e7826128ba565b67ffffffffffffffff811115612900576128ff611eef565b5b61290a82546122af565b61291582828561272c565b6000601f8311600181146129445760008415612932578287015490505b61293c858261279d565b8655506129af565b601f19841661295287612617565b965061295d86612617565b60005b8281101561298557848901548255600182019150600185019450602081019050612960565b868310156129a2578489015461299e601f89168261277f565b8355505b6001600288020188555050505b5050505050505b565b6129c1816116be565b82525050565b60006129d282611771565b6129dc81856122e0565b93506129ec81856020860161178d565b6129f5816117b7565b840191505092915050565b612a0981611857565b82525050565b612a188161189f565b82525050565b600061012082019050612a34600083018c6129b8565b612a41602083018b6123d4565b8181036040830152612a53818a6129c7565b90508181036060830152612a6781896129c7565b9050612a766080830188612a00565b612a8360a0830187612a0f565b612a9060c08301866129b8565b612a9d60e08301856129b8565b818103610100830152612ab08184611e4e565b90509a9950505050505050505050565b7f5265656e7472616e637947756172643a207265656e7472616e742063616c6c00600082015250565b6000612af6601f836122e0565b9150612b0182612ac0565b602082019050919050565b60006020820190508181036000830152612b2581612ae9565b905091905056fea2646970667358221220afad42ebbda4e0b5eb48543db7d46d33c483045e58b33d9dd1fd49f2f70dcf0564736f6c63430008110033",
  "devdoc": {
    "kind": "dev",
    "methods": {},
    "version": 1
  },
  "userdoc": {
    "kind": "user",
    "methods": {},
    "version": 1
  },
  "storageLayout": {
    "storage": [
      {
        "astId": 10,
        "contract": "contracts/facets/DaoFacet.sol:DaoFacet",
        "label": "_status",
        "offset": 0,
        "slot": "0",
        "type": "t_uint256"
      },
      {
        "astId": 969,
        "contract": "contracts/facets/DaoFacet.sol:DaoFacet",
        "label": "s",
        "offset": 0,
        "slot": "1",
        "type": "t_struct(AppStorage)2743_storage"
      }
    ],
    "types": {
      "t_address": {
        "encoding": "inplace",
        "label": "address",
        "numberOfBytes": "20"
      },
      "t_array(t_struct(Option)2669_storage)dyn_storage": {
        "base": "t_struct(Option)2669_storage",
        "encoding": "dynamic_array",
        "label": "struct Option[]",
        "numberOfBytes": "32"
      },
      "t_array(t_struct(Proposal)2705_storage)dyn_storage": {
        "base": "t_struct(Proposal)2705_storage",
        "encoding": "dynamic_array",
        "label": "struct Proposal[]",
        "numberOfBytes": "32"
      },
      "t_array(t_struct(Voter)2678_storage)dyn_storage": {
        "base": "t_struct(Voter)2678_storage",
        "encoding": "dynamic_array",
        "label": "struct Voter[]",
        "numberOfBytes": "32"
      },
      "t_array(t_uint256)dyn_storage": {
        "base": "t_uint256",
        "encoding": "dynamic_array",
        "label": "uint256[]",
        "numberOfBytes": "32"
      },
      "t_contract(IERC20)729": {
        "encoding": "inplace",
        "label": "contract IERC20",
        "numberOfBytes": "20"
      },
      "t_enum(ProposalStatus)2662": {
        "encoding": "inplace",
        "label": "enum ProposalStatus",
        "numberOfBytes": "1"
      },
      "t_enum(ProposalType)2658": {
        "encoding": "inplace",
        "label": "enum ProposalType",
        "numberOfBytes": "1"
      },
      "t_mapping(t_address,t_mapping(t_address,t_uint256))": {
        "encoding": "mapping",
        "key": "t_address",
        "label": "mapping(address => mapping(address => uint256))",
        "numberOfBytes": "32",
        "value": "t_mapping(t_address,t_uint256)"
      },
      "t_mapping(t_address,t_struct(Counter)782_storage)": {
        "encoding": "mapping",
        "key": "t_address",
        "label": "mapping(address => struct Counters.Counter)",
        "numberOfBytes": "32",
        "value": "t_struct(Counter)782_storage"
      },
      "t_mapping(t_address,t_uint256)": {
        "encoding": "mapping",
        "key": "t_address",
        "label": "mapping(address => uint256)",
        "numberOfBytes": "32",
        "value": "t_uint256"
      },
      "t_mapping(t_uint256,t_struct(Proposal)2705_storage)": {
        "encoding": "mapping",
        "key": "t_uint256",
        "label": "mapping(uint256 => struct Proposal)",
        "numberOfBytes": "32",
        "value": "t_struct(Proposal)2705_storage"
      },
      "t_string_storage": {
        "encoding": "bytes",
        "label": "string",
        "numberOfBytes": "32"
      },
      "t_struct(AppStorage)2743_storage": {
        "encoding": "inplace",
        "label": "struct AppStorage",
        "members": [
          {
            "astId": 2707,
            "contract": "contracts/facets/DaoFacet.sol:DaoFacet",
            "label": "totalSupply",
            "offset": 0,
            "slot": "0",
            "type": "t_uint256"
          },
          {
            "astId": 2711,
            "contract": "contracts/facets/DaoFacet.sol:DaoFacet",
            "label": "balances",
            "offset": 0,
            "slot": "1",
            "type": "t_mapping(t_address,t_uint256)"
          },
          {
            "astId": 2717,
            "contract": "contracts/facets/DaoFacet.sol:DaoFacet",
            "label": "allowances",
            "offset": 0,
            "slot": "2",
            "type": "t_mapping(t_address,t_mapping(t_address,t_uint256))"
          },
          {
            "astId": 2722,
            "contract": "contracts/facets/DaoFacet.sol:DaoFacet",
            "label": "nonces",
            "offset": 0,
            "slot": "3",
            "type": "t_mapping(t_address,t_struct(Counter)782_storage)"
          },
          {
            "astId": 2725,
            "contract": "contracts/facets/DaoFacet.sol:DaoFacet",
            "label": "larToken",
            "offset": 0,
            "slot": "4",
            "type": "t_contract(IERC20)729"
          },
          {
            "astId": 2727,
            "contract": "contracts/facets/DaoFacet.sol:DaoFacet",
            "label": "proposalId",
            "offset": 0,
            "slot": "5",
            "type": "t_uint256"
          },
          {
            "astId": 2732,
            "contract": "contracts/facets/DaoFacet.sol:DaoFacet",
            "label": "proposals",
            "offset": 0,
            "slot": "6",
            "type": "t_mapping(t_uint256,t_struct(Proposal)2705_storage)"
          },
          {
            "astId": 2735,
            "contract": "contracts/facets/DaoFacet.sol:DaoFacet",
            "label": "proposalsList",
            "offset": 0,
            "slot": "7",
            "type": "t_array(t_uint256)dyn_storage"
          },
          {
            "astId": 2739,
            "contract": "contracts/facets/DaoFacet.sol:DaoFacet",
            "label": "proposalsArray",
            "offset": 0,
            "slot": "8",
            "type": "t_array(t_struct(Proposal)2705_storage)dyn_storage"
          },
          {
            "astId": 2742,
            "contract": "contracts/facets/DaoFacet.sol:DaoFacet",
            "label": "proposalsId",
            "offset": 0,
            "slot": "9",
            "type": "t_array(t_uint256)dyn_storage"
          }
        ],
        "numberOfBytes": "320"
      },
      "t_struct(Counter)782_storage": {
        "encoding": "inplace",
        "label": "struct Counters.Counter",
        "members": [
          {
            "astId": 781,
            "contract": "contracts/facets/DaoFacet.sol:DaoFacet",
            "label": "_value",
            "offset": 0,
            "slot": "0",
            "type": "t_uint256"
          }
        ],
        "numberOfBytes": "32"
      },
      "t_struct(Option)2669_storage": {
        "encoding": "inplace",
        "label": "struct Option",
        "members": [
          {
            "astId": 2664,
            "contract": "contracts/facets/DaoFacet.sol:DaoFacet",
            "label": "index",
            "offset": 0,
            "slot": "0",
            "type": "t_uint256"
          },
          {
            "astId": 2666,
            "contract": "contracts/facets/DaoFacet.sol:DaoFacet",
            "label": "optionText",
            "offset": 0,
            "slot": "1",
            "type": "t_string_storage"
          },
          {
            "astId": 2668,
            "contract": "contracts/facets/DaoFacet.sol:DaoFacet",
            "label": "vote",
            "offset": 0,
            "slot": "2",
            "type": "t_uint256"
          }
        ],
        "numberOfBytes": "96"
      },
      "t_struct(Proposal)2705_storage": {
        "encoding": "inplace",
        "label": "struct Proposal",
        "members": [
          {
            "astId": 2680,
            "contract": "contracts/facets/DaoFacet.sol:DaoFacet",
            "label": "id",
            "offset": 0,
            "slot": "0",
            "type": "t_uint256"
          },
          {
            "astId": 2682,
            "contract": "contracts/facets/DaoFacet.sol:DaoFacet",
            "label": "creator",
            "offset": 0,
            "slot": "1",
            "type": "t_address"
          },
          {
            "astId": 2684,
            "contract": "contracts/facets/DaoFacet.sol:DaoFacet",
            "label": "title",
            "offset": 0,
            "slot": "2",
            "type": "t_string_storage"
          },
          {
            "astId": 2686,
            "contract": "contracts/facets/DaoFacet.sol:DaoFacet",
            "label": "description",
            "offset": 0,
            "slot": "3",
            "type": "t_string_storage"
          },
          {
            "astId": 2689,
            "contract": "contracts/facets/DaoFacet.sol:DaoFacet",
            "label": "proposalType",
            "offset": 0,
            "slot": "4",
            "type": "t_enum(ProposalType)2658"
          },
          {
            "astId": 2692,
            "contract": "contracts/facets/DaoFacet.sol:DaoFacet",
            "label": "proposalStatus",
            "offset": 1,
            "slot": "4",
            "type": "t_enum(ProposalStatus)2662"
          },
          {
            "astId": 2694,
            "contract": "contracts/facets/DaoFacet.sol:DaoFacet",
            "label": "startDate",
            "offset": 0,
            "slot": "5",
            "type": "t_uint256"
          },
          {
            "astId": 2696,
            "contract": "contracts/facets/DaoFacet.sol:DaoFacet",
            "label": "duration",
            "offset": 0,
            "slot": "6",
            "type": "t_uint256"
          },
          {
            "astId": 2700,
            "contract": "contracts/facets/DaoFacet.sol:DaoFacet",
            "label": "options",
            "offset": 0,
            "slot": "7",
            "type": "t_array(t_struct(Option)2669_storage)dyn_storage"
          },
          {
            "astId": 2704,
            "contract": "contracts/facets/DaoFacet.sol:DaoFacet",
            "label": "voters",
            "offset": 0,
            "slot": "8",
            "type": "t_array(t_struct(Voter)2678_storage)dyn_storage"
          }
        ],
        "numberOfBytes": "288"
      },
      "t_struct(Voter)2678_storage": {
        "encoding": "inplace",
        "label": "struct Voter",
        "members": [
          {
            "astId": 2671,
            "contract": "contracts/facets/DaoFacet.sol:DaoFacet",
            "label": "voterAddress",
            "offset": 0,
            "slot": "0",
            "type": "t_address"
          },
          {
            "astId": 2674,
            "contract": "contracts/facets/DaoFacet.sol:DaoFacet",
            "label": "optionIndexes",
            "offset": 0,
            "slot": "1",
            "type": "t_array(t_uint256)dyn_storage"
          },
          {
            "astId": 2677,
            "contract": "contracts/facets/DaoFacet.sol:DaoFacet",
            "label": "optionVotes",
            "offset": 0,
            "slot": "2",
            "type": "t_array(t_uint256)dyn_storage"
          }
        ],
        "numberOfBytes": "96"
      },
      "t_uint256": {
        "encoding": "inplace",
        "label": "uint256",
        "numberOfBytes": "32"
      }
    }
  }
}