{
  "address": "0x0DE122E83D5596c758f2AfDfD6A8B60723D94473",
  "abi": [
    {
      "anonymous": false,
      "inputs": [
        {
          "indexed": false,
          "internalType": "uint256",
          "name": "id",
          "type": "uint256"
        },
        {
          "indexed": false,
          "internalType": "address",
          "name": "creator",
          "type": "address"
        },
        {
          "indexed": false,
          "internalType": "string",
          "name": "title",
          "type": "string"
        },
        {
          "indexed": false,
          "internalType": "string",
          "name": "description",
          "type": "string"
        },
        {
          "indexed": false,
          "internalType": "enum ProposalType",
          "name": "proposalType",
          "type": "uint8"
        },
        {
          "indexed": false,
          "internalType": "enum ProposalStatus",
          "name": "proposalStatus",
          "type": "uint8"
        },
        {
          "indexed": false,
          "internalType": "uint256",
          "name": "startDate",
          "type": "uint256"
        },
        {
          "indexed": false,
          "internalType": "uint256",
          "name": "duration",
          "type": "uint256"
        },
        {
          "components": [
            {
              "internalType": "uint256",
              "name": "index",
              "type": "uint256"
            },
            {
              "internalType": "string",
              "name": "optionText",
              "type": "string"
            },
            {
              "internalType": "uint256",
              "name": "vote",
              "type": "uint256"
            }
          ],
          "indexed": false,
          "internalType": "struct Option[]",
          "name": "options",
          "type": "tuple[]"
        }
      ],
      "name": "ProposalCreated",
      "type": "event"
    },
    {
      "inputs": [
        {
          "internalType": "string",
          "name": "_title",
          "type": "string"
        },
        {
          "internalType": "string",
          "name": "_description",
          "type": "string"
        },
        {
          "internalType": "uint256",
          "name": "_proposalType",
          "type": "uint256"
        },
        {
          "internalType": "uint256",
          "name": "_proposalStatus",
          "type": "uint256"
        },
        {
          "internalType": "uint256",
          "name": "_startDate",
          "type": "uint256"
        },
        {
          "internalType": "uint256",
          "name": "_duration",
          "type": "uint256"
        },
        {
          "components": [
            {
              "internalType": "uint256",
              "name": "index",
              "type": "uint256"
            },
            {
              "internalType": "string",
              "name": "optionText",
              "type": "string"
            },
            {
              "internalType": "uint256",
              "name": "vote",
              "type": "uint256"
            }
          ],
          "internalType": "struct Option[]",
          "name": "_options",
          "type": "tuple[]"
        }
      ],
      "name": "createProposal",
      "outputs": [],
      "stateMutability": "nonpayable",
      "type": "function"
    },
    {
      "inputs": [],
      "name": "deletePreviousData",
      "outputs": [],
      "stateMutability": "nonpayable",
      "type": "function"
    },
    {
      "inputs": [
        {
          "internalType": "uint256",
          "name": "id",
          "type": "uint256"
        }
      ],
      "name": "getOptions",
      "outputs": [
        {
          "components": [
            {
              "internalType": "uint256",
              "name": "index",
              "type": "uint256"
            },
            {
              "internalType": "string",
              "name": "optionText",
              "type": "string"
            },
            {
              "internalType": "uint256",
              "name": "vote",
              "type": "uint256"
            }
          ],
          "internalType": "struct Option[]",
          "name": "",
          "type": "tuple[]"
        }
      ],
      "stateMutability": "view",
      "type": "function"
    },
    {
      "inputs": [
        {
          "internalType": "uint256",
          "name": "proposalId",
          "type": "uint256"
        }
      ],
      "name": "getProposals",
      "outputs": [
        {
          "components": [
            {
              "internalType": "uint256",
              "name": "id",
              "type": "uint256"
            },
            {
              "internalType": "address",
              "name": "creator",
              "type": "address"
            },
            {
              "internalType": "string",
              "name": "title",
              "type": "string"
            },
            {
              "internalType": "string",
              "name": "description",
              "type": "string"
            },
            {
              "internalType": "enum ProposalType",
              "name": "proposalType",
              "type": "uint8"
            },
            {
              "internalType": "enum ProposalStatus",
              "name": "proposalStatus",
              "type": "uint8"
            },
            {
              "internalType": "uint256",
              "name": "startDate",
              "type": "uint256"
            },
            {
              "internalType": "uint256",
              "name": "duration",
              "type": "uint256"
            },
            {
              "components": [
                {
                  "internalType": "uint256",
                  "name": "index",
                  "type": "uint256"
                },
                {
                  "internalType": "string",
                  "name": "optionText",
                  "type": "string"
                },
                {
                  "internalType": "uint256",
                  "name": "vote",
                  "type": "uint256"
                }
              ],
              "internalType": "struct Option[]",
              "name": "options",
              "type": "tuple[]"
            },
            {
              "components": [
                {
                  "internalType": "address",
                  "name": "voterAddress",
                  "type": "address"
                },
                {
                  "internalType": "uint256[]",
                  "name": "optionIndexes",
                  "type": "uint256[]"
                },
                {
                  "internalType": "uint256[]",
                  "name": "optionVotes",
                  "type": "uint256[]"
                }
              ],
              "internalType": "struct Voter[]",
              "name": "voters",
              "type": "tuple[]"
            }
          ],
          "internalType": "struct Proposal",
          "name": "",
          "type": "tuple"
        }
      ],
      "stateMutability": "view",
      "type": "function"
    },
    {
      "inputs": [],
      "name": "getProposalsId",
      "outputs": [
        {
          "internalType": "uint256[]",
          "name": "",
          "type": "uint256[]"
        }
      ],
      "stateMutability": "view",
      "type": "function"
    },
    {
      "inputs": [
        {
          "internalType": "uint256",
          "name": "id",
          "type": "uint256"
        }
      ],
      "name": "getVoters",
      "outputs": [
        {
          "components": [
            {
              "internalType": "address",
              "name": "voterAddress",
              "type": "address"
            },
            {
              "internalType": "uint256[]",
              "name": "optionIndexes",
              "type": "uint256[]"
            },
            {
              "internalType": "uint256[]",
              "name": "optionVotes",
              "type": "uint256[]"
            }
          ],
          "internalType": "struct Voter[]",
          "name": "",
          "type": "tuple[]"
        }
      ],
      "stateMutability": "view",
      "type": "function"
    },
    {
      "inputs": [
        {
          "internalType": "address",
          "name": "larTokenAddress",
          "type": "address"
        }
      ],
      "name": "initializeDao",
      "outputs": [],
      "stateMutability": "nonpayable",
      "type": "function"
    },
    {
      "inputs": [
        {
          "internalType": "address",
          "name": "receiver",
          "type": "address"
        }
      ],
      "name": "sendLAR",
      "outputs": [],
      "stateMutability": "nonpayable",
      "type": "function"
    }
  ],
  "transactionHash": "0x249b0347b4db736d7ba1434656b446b54ac1153eae0146345f7f9bb21853b4f4",
  "args": [],
  "numDeployments": 4,
  "solcInputHash": "616f4d74b9eb030cc7e64a68a2428675",
  "bytecode": "0x608060405234801561001057600080fd5b506001600081905550612b4e806100286000396000f3fe608060405234801561001057600080fd5b50600436106100885760003560e01c806386b646f21161005b57806386b646f2146101015780638915b3fb14610131578063c36954ba14610161578063e16659941461017d57610088565b80632c72fdfc1461008d5780632f7b73de146100bd57806375db2e07146100d95780637e48f5af146100e3575b600080fd5b6100a760048036038101906100a291906116e0565b610199565b6040516100b49190611c75565b60405180910390f35b6100d760048036038101906100d29190611cc3565b610642565b005b6100e1610689565b005b6100eb610824565b6040516100f89190611d5f565b60405180910390f35b61011b600480360381019061011691906116e0565b61087f565b6040516101289190611e07565b60405180910390f35b61014b600480360381019061014691906116e0565b6109fd565b6040516101589190611eaf565b60405180910390f35b61017b60048036038101906101769190611cc3565b610b1b565b005b61019760048036038101906101929190612176565b610bcb565b005b6101a161120c565b6001600601600083815260200190815260200160002060405180610140016040529081600082015481526020016001820160009054906101000a900473ffffffffffffffffffffffffffffffffffffffff1673ffffffffffffffffffffffffffffffffffffffff1673ffffffffffffffffffffffffffffffffffffffff1681526020016002820180546102339061229b565b80601f016020809104026020016040519081016040528092919081815260200182805461025f9061229b565b80156102ac5780601f10610281576101008083540402835291602001916102ac565b820191906000526020600020905b81548152906001019060200180831161028f57829003601f168201915b505050505081526020016003820180546102c59061229b565b80601f01602080910402602001604051908101604052809291908181526020018280546102f19061229b565b801561033e5780601f106103135761010080835404028352916020019161033e565b820191906000526020600020905b81548152906001019060200180831161032157829003601f168201915b505050505081526020016004820160009054906101000a900460ff16600281111561036c5761036b6117ed565b5b600281111561037e5761037d6117ed565b5b81526020016004820160019054906101000a900460ff1660028111156103a7576103a66117ed565b5b60028111156103b9576103b86117ed565b5b8152602001600582015481526020016006820154815260200160078201805480602002602001604051908101604052809291908181526020016000905b828210156104ce5783829060005260206000209060030201604051806060016040529081600082015481526020016001820180546104339061229b565b80601f016020809104026020016040519081016040528092919081815260200182805461045f9061229b565b80156104ac5780601f10610481576101008083540402835291602001916104ac565b820191906000526020600020905b81548152906001019060200180831161048f57829003601f168201915b50505050508152602001600282015481525050815260200190600101906103f6565b50505050815260200160088201805480602002602001604051908101604052809291908181526020016000905b8282101561063357838290600052602060002090600302016040518060600160405290816000820160009054906101000a900473ffffffffffffffffffffffffffffffffffffffff1673ffffffffffffffffffffffffffffffffffffffff1673ffffffffffffffffffffffffffffffffffffffff168152602001600182018054806020026020016040519081016040528092919081815260200182805480156105c357602002820191906000526020600020905b8154815260200190600101908083116105af575b505050505081526020016002820180548060200260200160405190810160405280929190818152602001828054801561061b57602002820191906000526020600020905b815481526020019060010190808311610607575b505050505081525050815260200190600101906104fb565b50505050815250509050919050565b80600160040160006101000a81548173ffffffffffffffffffffffffffffffffffffffff021916908373ffffffffffffffffffffffffffffffffffffffff16021790555050565b6106916111df565b60040160009054906101000a900473ffffffffffffffffffffffffffffffffffffffff1673ffffffffffffffffffffffffffffffffffffffff163373ffffffffffffffffffffffffffffffffffffffff1614610722576040517f08c379a000000000000000000000000000000000000000000000000000000000815260040161071990612329565b60405180910390fd5b60005b60016005015481101561080557600160060160008281526020019081526020016000206000808201600090556001820160006101000a81549073ffffffffffffffffffffffffffffffffffffffff02191690556002820160006107889190611299565b6003820160006107989190611299565b6004820160006101000a81549060ff02191690556004820160016101000a81549060ff0219169055600582016000905560068201600090556007820160006107e091906112d9565b6008820160006107f091906112fd565b505080806107fd90612378565b915050610725565b50600160080160006108179190611321565b6000600160050181905550565b6060600160090180548060200260200160405190810160405280929190818152602001828054801561087557602002820191906000526020600020905b815481526020019060010190808311610861575b5050505050905090565b606060016006016000838152602001908152602001600020600801805480602002602001604051908101604052809291908181526020016000905b828210156109f257838290600052602060002090600302016040518060600160405290816000820160009054906101000a900473ffffffffffffffffffffffffffffffffffffffff1673ffffffffffffffffffffffffffffffffffffffff1673ffffffffffffffffffffffffffffffffffffffff1681526020016001820180548060200260200160405190810160405280929190818152602001828054801561098257602002820191906000526020600020905b81548152602001906001019080831161096e575b50505050508152602001600282018054806020026020016040519081016040528092919081815260200182805480156109da57602002820191906000526020600020905b8154815260200190600101908083116109c6575b505050505081525050815260200190600101906108ba565b505050509050919050565b606060016006016000838152602001908152602001600020600701805480602002602001604051908101604052809291908181526020016000905b82821015610b10578382906000526020600020906003020160405180606001604052908160008201548152602001600182018054610a759061229b565b80601f0160208091040260200160405190810160405280929190818152602001828054610aa19061229b565b8015610aee5780601f10610ac357610100808354040283529160200191610aee565b820191906000526020600020905b815481529060010190602001808311610ad157829003601f168201915b5050505050815260200160028201548152505081526020019060010190610a38565b505050509050919050565b600160040160009054906101000a900473ffffffffffffffffffffffffffffffffffffffff1673ffffffffffffffffffffffffffffffffffffffff1663a9059cbb826802b5e3af16b18800006040518363ffffffff1660e01b8152600401610b84929190612414565b6020604051808303816000875af1158015610ba3573d6000803e3d6000fd5b505050506040513d601f19601f82011682018060405250810190610bc79190612475565b5050565b600260005403610c10576040517f08c379a0000000000000000000000000000000000000000000000000000000008152600401610c07906124ee565b60405180910390fd5b6002600081905550674563918244f40000600160040160009054906101000a900473ffffffffffffffffffffffffffffffffffffffff1673ffffffffffffffffffffffffffffffffffffffff166370a08231336040518263ffffffff1660e01b8152600401610c7f919061250e565b602060405180830381865afa158015610c9c573d6000803e3d6000fd5b505050506040513d601f19601f82011682018060405250810190610cc0919061253e565b1015610d01576040517f08c379a0000000000000000000000000000000000000000000000000000000008152600401610cf8906125dd565b60405180910390fd5b600160040160009054906101000a900473ffffffffffffffffffffffffffffffffffffffff1673ffffffffffffffffffffffffffffffffffffffff166323b872dd3330674563918244f400006040518463ffffffff1660e01b8152600401610d6b93929190612638565b6020604051808303816000875af1158015610d8a573d6000803e3d6000fd5b505050506040513d601f19601f82011682018060405250810190610dae9190612475565b506000808603610dc15760009050610de1565b60018603610dd25760019050610de0565b60028603610ddf57600290505b5b5b6000808603610df35760009050610e13565b60018603610e045760019050610e12565b60028603610e1157600290505b5b5b600060016006016000600160050154815260200190815260200160002090506001600501548160000181905550338160010160006101000a81548173ffffffffffffffffffffffffffffffffffffffff021916908373ffffffffffffffffffffffffffffffffffffffff16021790555089816002019081610e949190612811565b5088816003019081610ea69190612811565b50828160040160006101000a81548160ff02191690836002811115610ece57610ecd6117ed565b5b0217905550818160040160016101000a81548160ff02191690836002811115610efa57610ef96117ed565b5b021790555085816005018190555084816006018190555060005b8451811015610faa576000858281518110610f3257610f316128e3565b5b6020026020010151905082600701819080600181540180825580915050600190039060005260206000209060030201600090919091909150600082015181600001556020820151816001019081610f899190612811565b50604082015181600201555050508080610fa290612378565b915050610f14565b506001600801819080600181540180825580915050600190039060005260206000209060090201600090919091909150600082015481600001556001820160009054906101000a900473ffffffffffffffffffffffffffffffffffffffff168160010160006101000a81548173ffffffffffffffffffffffffffffffffffffffff021916908373ffffffffffffffffffffffffffffffffffffffff1602179055506002820181600201908161105f9190612928565b50600382018160030190816110749190612928565b506004820160009054906101000a900460ff168160040160006101000a81548160ff021916908360028111156110ad576110ac6117ed565b5b02179055506004820160019054906101000a900460ff168160040160016101000a81548160ff021916908360028111156110ea576110e96117ed565b5b021790555060058201548160050155600682015481600601556007820181600701908054611119929190611345565b5060088201816008019080546111309291906113c6565b505050600160090160016005015490806001815401808255809150506001900390600052602060002001600090919091909150556001600501600081548092919061117a90612378565b91905055507fdf54b3b6095f0e4bab834f1d5294b7cbcd9cd963191fb841d618e162d9f56fce600160050154338c8c87878c8c8c6040516111c399989796959493929190612a76565b60405180910390a1505050600160008190555050505050505050565b6000807fc8fcad8db84d3cc18b4c41d551ea0ee66dd599cde068d998e57d5e09332c131c90508091505090565b60405180610140016040528060008152602001600073ffffffffffffffffffffffffffffffffffffffff16815260200160608152602001606081526020016000600281111561125e5761125d6117ed565b5b815260200160006002811115611277576112766117ed565b5b8152602001600081526020016000815260200160608152602001606081525090565b5080546112a59061229b565b6000825580601f106112b757506112d6565b601f0160209004906000526020600020908101906112d591906114b3565b5b50565b50805460008255600302906000526020600020908101906112fa91906114d0565b50565b508054600082556003029060005260206000209081019061131e9190611507565b50565b50805460008255600902906000526020600020908101906113429190611565565b50565b8280548282559060005260206000209060030281019282156113b55760005260206000209160030282015b828111156113b457828260008201548160000155600182018160010190816113989190612928565b5060028201548160020155505091600301919060030190611370565b5b5090506113c291906114d0565b5090565b8280548282559060005260206000209060030281019282156114a25760005260206000209160030282015b828111156114a15782826000820160009054906101000a900473ffffffffffffffffffffffffffffffffffffffff168160000160006101000a81548173ffffffffffffffffffffffffffffffffffffffff021916908373ffffffffffffffffffffffffffffffffffffffff1602179055506001820181600101908054611478929190611623565b50600282018160020190805461148f929190611623565b505050916003019190600301906113f1565b5b5090506114af9190611507565b5090565b5b808211156114cc5760008160009055506001016114b4565b5090565b5b80821115611503576000808201600090556001820160006114f29190611299565b6002820160009055506003016114d1565b5090565b5b8082111561156157600080820160006101000a81549073ffffffffffffffffffffffffffffffffffffffff02191690556001820160006115489190611675565b6002820160006115589190611675565b50600301611508565b5090565b5b8082111561161f576000808201600090556001820160006101000a81549073ffffffffffffffffffffffffffffffffffffffff02191690556002820160006115ae9190611299565b6003820160006115be9190611299565b6004820160006101000a81549060ff02191690556004820160016101000a81549060ff02191690556005820160009055600682016000905560078201600061160691906112d9565b60088201600061161691906112fd565b50600901611566565b5090565b8280548282559060005260206000209081019282156116645760005260206000209182015b82811115611663578254825591600101919060010190611648565b5b50905061167191906114b3565b5090565b508054600082559060005260206000209081019061169391906114b3565b50565b6000604051905090565b600080fd5b600080fd5b6000819050919050565b6116bd816116aa565b81146116c857600080fd5b50565b6000813590506116da816116b4565b92915050565b6000602082840312156116f6576116f56116a0565b5b6000611704848285016116cb565b91505092915050565b611716816116aa565b82525050565b600073ffffffffffffffffffffffffffffffffffffffff82169050919050565b60006117478261171c565b9050919050565b6117578161173c565b82525050565b600081519050919050565b600082825260208201905092915050565b60005b8381101561179757808201518184015260208101905061177c565b60008484015250505050565b6000601f19601f8301169050919050565b60006117bf8261175d565b6117c98185611768565b93506117d9818560208601611779565b6117e2816117a3565b840191505092915050565b7f4e487b7100000000000000000000000000000000000000000000000000000000600052602160045260246000fd5b6003811061182d5761182c6117ed565b5b50565b600081905061183e8261181c565b919050565b600061184e82611830565b9050919050565b61185e81611843565b82525050565b60038110611875576118746117ed565b5b50565b600081905061188682611864565b919050565b600061189682611878565b9050919050565b6118a68161188b565b82525050565b600081519050919050565b600082825260208201905092915050565b6000819050602082019050919050565b60006060830160008301516118f0600086018261170d565b506020830151848203602086015261190882826117b4565b915050604083015161191d604086018261170d565b508091505092915050565b600061193483836118d8565b905092915050565b6000602082019050919050565b6000611954826118ac565b61195e81856118b7565b935083602082028501611970856118c8565b8060005b858110156119ac578484038952815161198d8582611928565b94506119988361193c565b925060208a01995050600181019050611974565b50829750879550505050505092915050565b600081519050919050565b600082825260208201905092915050565b6000819050602082019050919050565b600081519050919050565b600082825260208201905092915050565b6000819050602082019050919050565b6000611a22838361170d565b60208301905092915050565b6000602082019050919050565b6000611a46826119ea565b611a5081856119f5565b9350611a5b83611a06565b8060005b83811015611a8c578151611a738882611a16565b9750611a7e83611a2e565b925050600181019050611a5f565b5085935050505092915050565b6000606083016000830151611ab1600086018261174e565b5060208301518482036020860152611ac98282611a3b565b91505060408301518482036040860152611ae38282611a3b565b9150508091505092915050565b6000611afc8383611a99565b905092915050565b6000602082019050919050565b6000611b1c826119be565b611b2681856119c9565b935083602082028501611b38856119da565b8060005b85811015611b745784840389528151611b558582611af0565b9450611b6083611b04565b925060208a01995050600181019050611b3c565b50829750879550505050505092915050565b600061014083016000830151611b9f600086018261170d565b506020830151611bb2602086018261174e565b5060408301518482036040860152611bca82826117b4565b91505060608301518482036060860152611be482826117b4565b9150506080830151611bf96080860182611855565b5060a0830151611c0c60a086018261189d565b5060c0830151611c1f60c086018261170d565b5060e0830151611c3260e086018261170d565b50610100830151848203610100860152611c4c8282611949565b915050610120830151848203610120860152611c688282611b11565b9150508091505092915050565b60006020820190508181036000830152611c8f8184611b86565b905092915050565b611ca08161173c565b8114611cab57600080fd5b50565b600081359050611cbd81611c97565b92915050565b600060208284031215611cd957611cd86116a0565b5b6000611ce784828501611cae565b91505092915050565b600082825260208201905092915050565b6000611d0c826119ea565b611d168185611cf0565b9350611d2183611a06565b8060005b83811015611d52578151611d398882611a16565b9750611d4483611a2e565b925050600181019050611d25565b5085935050505092915050565b60006020820190508181036000830152611d798184611d01565b905092915050565b600082825260208201905092915050565b6000611d9d826119be565b611da78185611d81565b935083602082028501611db9856119da565b8060005b85811015611df55784840389528151611dd68582611af0565b9450611de183611b04565b925060208a01995050600181019050611dbd565b50829750879550505050505092915050565b60006020820190508181036000830152611e218184611d92565b905092915050565b600082825260208201905092915050565b6000611e45826118ac565b611e4f8185611e29565b935083602082028501611e61856118c8565b8060005b85811015611e9d5784840389528151611e7e8582611928565b9450611e898361193c565b925060208a01995050600181019050611e65565b50829750879550505050505092915050565b60006020820190508181036000830152611ec98184611e3a565b905092915050565b600080fd5b600080fd5b7f4e487b7100000000000000000000000000000000000000000000000000000000600052604160045260246000fd5b611f13826117a3565b810181811067ffffffffffffffff82111715611f3257611f31611edb565b5b80604052505050565b6000611f45611696565b9050611f518282611f0a565b919050565b600067ffffffffffffffff821115611f7157611f70611edb565b5b611f7a826117a3565b9050602081019050919050565b82818337600083830152505050565b6000611fa9611fa484611f56565b611f3b565b905082815260208101848484011115611fc557611fc4611ed6565b5b611fd0848285611f87565b509392505050565b600082601f830112611fed57611fec611ed1565b5b8135611ffd848260208601611f96565b91505092915050565b600067ffffffffffffffff82111561202157612020611edb565b5b602082029050602081019050919050565b600080fd5b600080fd5b600080fd5b60006060828403121561205757612056612037565b5b6120616060611f3b565b90506000612071848285016116cb565b600083015250602082013567ffffffffffffffff8111156120955761209461203c565b5b6120a184828501611fd8565b60208301525060406120b5848285016116cb565b60408301525092915050565b60006120d46120cf84612006565b611f3b565b905080838252602082019050602084028301858111156120f7576120f6612032565b5b835b8181101561213e57803567ffffffffffffffff81111561211c5761211b611ed1565b5b8086016121298982612041565b855260208501945050506020810190506120f9565b5050509392505050565b600082601f83011261215d5761215c611ed1565b5b813561216d8482602086016120c1565b91505092915050565b600080600080600080600060e0888a031215612195576121946116a0565b5b600088013567ffffffffffffffff8111156121b3576121b26116a5565b5b6121bf8a828b01611fd8565b975050602088013567ffffffffffffffff8111156121e0576121df6116a5565b5b6121ec8a828b01611fd8565b96505060406121fd8a828b016116cb565b955050606061220e8a828b016116cb565b945050608061221f8a828b016116cb565b93505060a06122308a828b016116cb565b92505060c088013567ffffffffffffffff811115612251576122506116a5565b5b61225d8a828b01612148565b91505092959891949750929550565b7f4e487b7100000000000000000000000000000000000000000000000000000000600052602260045260246000fd5b600060028204905060018216806122b357607f821691505b6020821081036122c6576122c561226c565b5b50919050565b600082825260208201905092915050565b7f4f6e6c79206f776e65722063616e2064656c6574650000000000000000000000600082015250565b60006123136015836122cc565b915061231e826122dd565b602082019050919050565b6000602082019050818103600083015261234281612306565b9050919050565b7f4e487b7100000000000000000000000000000000000000000000000000000000600052601160045260246000fd5b6000612383826116aa565b91507fffffffffffffffffffffffffffffffffffffffffffffffffffffffffffffffff82036123b5576123b4612349565b5b600182019050919050565b6123c98161173c565b82525050565b6000819050919050565b6000819050919050565b60006123fe6123f96123f4846123cf565b6123d9565b6116aa565b9050919050565b61240e816123e3565b82525050565b600060408201905061242960008301856123c0565b6124366020830184612405565b9392505050565b60008115159050919050565b6124528161243d565b811461245d57600080fd5b50565b60008151905061246f81612449565b92915050565b60006020828403121561248b5761248a6116a0565b5b600061249984828501612460565b91505092915050565b7f5265656e7472616e637947756172643a207265656e7472616e742063616c6c00600082015250565b60006124d8601f836122cc565b91506124e3826124a2565b602082019050919050565b60006020820190508181036000830152612507816124cb565b9050919050565b600060208201905061252360008301846123c0565b92915050565b600081519050612538816116b4565b92915050565b600060208284031215612554576125536116a0565b5b600061256284828501612529565b91505092915050565b7f4d696e696d756d206f662035204c4152206973206e656564656420746f20637260008201527f6561746520612070726f706f73616c0000000000000000000000000000000000602082015250565b60006125c7602f836122cc565b91506125d28261256b565b604082019050919050565b600060208201905081810360008301526125f6816125ba565b9050919050565b6000819050919050565b600061262261261d612618846125fd565b6123d9565b6116aa565b9050919050565b61263281612607565b82525050565b600060608201905061264d60008301866123c0565b61265a60208301856123c0565b6126676040830184612629565b949350505050565b60008190508160005260206000209050919050565b60006020601f8301049050919050565b600082821b905092915050565b6000600883026126d17fffffffffffffffffffffffffffffffffffffffffffffffffffffffffffffffff82612694565b6126db8683612694565b95508019841693508086168417925050509392505050565b600061270e612709612704846116aa565b6123d9565b6116aa565b9050919050565b6000819050919050565b612728836126f3565b61273c61273482612715565b8484546126a1565b825550505050565b600090565b612751612744565b61275c81848461271f565b505050565b5b8181101561278057612775600082612749565b600181019050612762565b5050565b601f8211156127c5576127968161266f565b61279f84612684565b810160208510156127ae578190505b6127c26127ba85612684565b830182612761565b50505b505050565b600082821c905092915050565b60006127e8600019846008026127ca565b1980831691505092915050565b600061280183836127d7565b9150826002028217905092915050565b61281a8261175d565b67ffffffffffffffff81111561283357612832611edb565b5b61283d825461229b565b612848828285612784565b600060209050601f83116001811461287b5760008415612869578287015190505b61287385826127f5565b8655506128db565b601f1984166128898661266f565b60005b828110156128b15784890151825560018201915060208501945060208101905061288c565b868310156128ce57848901516128ca601f8916826127d7565b8355505b6001600288020188555050505b505050505050565b7f4e487b7100000000000000000000000000000000000000000000000000000000600052603260045260246000fd5b6000815490506129218161229b565b9050919050565b818103612936575050612a0e565b61293f82612912565b67ffffffffffffffff81111561295857612957611edb565b5b612962825461229b565b61296d828285612784565b6000601f83116001811461299c576000841561298a578287015490505b61299485826127f5565b865550612a07565b601f1984166129aa8761266f565b96506129b58661266f565b60005b828110156129dd578489015482556001820191506001850194506020810190506129b8565b868310156129fa57848901546129f6601f8916826127d7565b8355505b6001600288020188555050505b5050505050505b565b612a19816116aa565b82525050565b6000612a2a8261175d565b612a3481856122cc565b9350612a44818560208601611779565b612a4d816117a3565b840191505092915050565b612a6181611843565b82525050565b612a708161188b565b82525050565b600061012082019050612a8c600083018c612a10565b612a99602083018b6123c0565b8181036040830152612aab818a612a1f565b90508181036060830152612abf8189612a1f565b9050612ace6080830188612a58565b612adb60a0830187612a67565b612ae860c0830186612a10565b612af560e0830185612a10565b818103610100830152612b088184611e3a565b90509a995050505050505050505056fea2646970667358221220cd17dc905bcceb55356644eb634344318f1a7b96e7ea3c642c542c12b9c466c364736f6c63430008110033",
  "devdoc": {
    "kind": "dev",
    "methods": {},
    "version": 1
  },
  "userdoc": {
    "kind": "user",
    "methods": {},
    "version": 1
  },
  "storageLayout": {
    "storage": [
      {
        "astId": 10,
        "contract": "contracts/facets/DaoFacet.sol:DaoFacet",
        "label": "_status",
        "offset": 0,
        "slot": "0",
        "type": "t_uint256"
      },
      {
        "astId": 209,
        "contract": "contracts/facets/DaoFacet.sol:DaoFacet",
        "label": "s",
        "offset": 0,
        "slot": "1",
        "type": "t_struct(AppStorage)734_storage"
      }
    ],
    "types": {
      "t_address": {
        "encoding": "inplace",
        "label": "address",
        "numberOfBytes": "20"
      },
      "t_array(t_struct(Option)660_storage)dyn_storage": {
        "base": "t_struct(Option)660_storage",
        "encoding": "dynamic_array",
        "label": "struct Option[]",
        "numberOfBytes": "32"
      },
      "t_array(t_struct(Proposal)696_storage)dyn_storage": {
        "base": "t_struct(Proposal)696_storage",
        "encoding": "dynamic_array",
        "label": "struct Proposal[]",
        "numberOfBytes": "32"
      },
      "t_array(t_struct(Voter)669_storage)dyn_storage": {
        "base": "t_struct(Voter)669_storage",
        "encoding": "dynamic_array",
        "label": "struct Voter[]",
        "numberOfBytes": "32"
      },
      "t_array(t_uint256)dyn_storage": {
        "base": "t_uint256",
        "encoding": "dynamic_array",
        "label": "uint256[]",
        "numberOfBytes": "32"
      },
      "t_contract(IERC20)117": {
        "encoding": "inplace",
        "label": "contract IERC20",
        "numberOfBytes": "20"
      },
      "t_enum(ProposalStatus)653": {
        "encoding": "inplace",
        "label": "enum ProposalStatus",
        "numberOfBytes": "1"
      },
      "t_enum(ProposalType)649": {
        "encoding": "inplace",
        "label": "enum ProposalType",
        "numberOfBytes": "1"
      },
      "t_mapping(t_address,t_mapping(t_address,t_uint256))": {
        "encoding": "mapping",
        "key": "t_address",
        "label": "mapping(address => mapping(address => uint256))",
        "numberOfBytes": "32",
        "value": "t_mapping(t_address,t_uint256)"
      },
      "t_mapping(t_address,t_struct(Counter)123_storage)": {
        "encoding": "mapping",
        "key": "t_address",
        "label": "mapping(address => struct Counters.Counter)",
        "numberOfBytes": "32",
        "value": "t_struct(Counter)123_storage"
      },
      "t_mapping(t_address,t_uint256)": {
        "encoding": "mapping",
        "key": "t_address",
        "label": "mapping(address => uint256)",
        "numberOfBytes": "32",
        "value": "t_uint256"
      },
      "t_mapping(t_uint256,t_struct(Proposal)696_storage)": {
        "encoding": "mapping",
        "key": "t_uint256",
        "label": "mapping(uint256 => struct Proposal)",
        "numberOfBytes": "32",
        "value": "t_struct(Proposal)696_storage"
      },
      "t_string_storage": {
        "encoding": "bytes",
        "label": "string",
        "numberOfBytes": "32"
      },
      "t_struct(AppStorage)734_storage": {
        "encoding": "inplace",
        "label": "struct AppStorage",
        "members": [
          {
            "astId": 698,
            "contract": "contracts/facets/DaoFacet.sol:DaoFacet",
            "label": "totalSupply",
            "offset": 0,
            "slot": "0",
            "type": "t_uint256"
          },
          {
            "astId": 702,
            "contract": "contracts/facets/DaoFacet.sol:DaoFacet",
            "label": "balances",
            "offset": 0,
            "slot": "1",
            "type": "t_mapping(t_address,t_uint256)"
          },
          {
            "astId": 708,
            "contract": "contracts/facets/DaoFacet.sol:DaoFacet",
            "label": "allowances",
            "offset": 0,
            "slot": "2",
            "type": "t_mapping(t_address,t_mapping(t_address,t_uint256))"
          },
          {
            "astId": 713,
            "contract": "contracts/facets/DaoFacet.sol:DaoFacet",
            "label": "nonces",
            "offset": 0,
            "slot": "3",
            "type": "t_mapping(t_address,t_struct(Counter)123_storage)"
          },
          {
            "astId": 716,
            "contract": "contracts/facets/DaoFacet.sol:DaoFacet",
            "label": "larToken",
            "offset": 0,
            "slot": "4",
            "type": "t_contract(IERC20)117"
          },
          {
            "astId": 718,
            "contract": "contracts/facets/DaoFacet.sol:DaoFacet",
            "label": "proposalId",
            "offset": 0,
            "slot": "5",
            "type": "t_uint256"
          },
          {
            "astId": 723,
            "contract": "contracts/facets/DaoFacet.sol:DaoFacet",
            "label": "proposals",
            "offset": 0,
            "slot": "6",
            "type": "t_mapping(t_uint256,t_struct(Proposal)696_storage)"
          },
          {
            "astId": 726,
            "contract": "contracts/facets/DaoFacet.sol:DaoFacet",
            "label": "proposalsList",
            "offset": 0,
            "slot": "7",
            "type": "t_array(t_uint256)dyn_storage"
          },
          {
            "astId": 730,
            "contract": "contracts/facets/DaoFacet.sol:DaoFacet",
            "label": "proposalsArray",
            "offset": 0,
            "slot": "8",
            "type": "t_array(t_struct(Proposal)696_storage)dyn_storage"
          },
          {
            "astId": 733,
            "contract": "contracts/facets/DaoFacet.sol:DaoFacet",
            "label": "proposalsId",
            "offset": 0,
            "slot": "9",
            "type": "t_array(t_uint256)dyn_storage"
          }
        ],
        "numberOfBytes": "320"
      },
      "t_struct(Counter)123_storage": {
        "encoding": "inplace",
        "label": "struct Counters.Counter",
        "members": [
          {
            "astId": 122,
            "contract": "contracts/facets/DaoFacet.sol:DaoFacet",
            "label": "_value",
            "offset": 0,
            "slot": "0",
            "type": "t_uint256"
          }
        ],
        "numberOfBytes": "32"
      },
      "t_struct(Option)660_storage": {
        "encoding": "inplace",
        "label": "struct Option",
        "members": [
          {
            "astId": 655,
            "contract": "contracts/facets/DaoFacet.sol:DaoFacet",
            "label": "index",
            "offset": 0,
            "slot": "0",
            "type": "t_uint256"
          },
          {
            "astId": 657,
            "contract": "contracts/facets/DaoFacet.sol:DaoFacet",
            "label": "optionText",
            "offset": 0,
            "slot": "1",
            "type": "t_string_storage"
          },
          {
            "astId": 659,
            "contract": "contracts/facets/DaoFacet.sol:DaoFacet",
            "label": "vote",
            "offset": 0,
            "slot": "2",
            "type": "t_uint256"
          }
        ],
        "numberOfBytes": "96"
      },
      "t_struct(Proposal)696_storage": {
        "encoding": "inplace",
        "label": "struct Proposal",
        "members": [
          {
            "astId": 671,
            "contract": "contracts/facets/DaoFacet.sol:DaoFacet",
            "label": "id",
            "offset": 0,
            "slot": "0",
            "type": "t_uint256"
          },
          {
            "astId": 673,
            "contract": "contracts/facets/DaoFacet.sol:DaoFacet",
            "label": "creator",
            "offset": 0,
            "slot": "1",
            "type": "t_address"
          },
          {
            "astId": 675,
            "contract": "contracts/facets/DaoFacet.sol:DaoFacet",
            "label": "title",
            "offset": 0,
            "slot": "2",
            "type": "t_string_storage"
          },
          {
            "astId": 677,
            "contract": "contracts/facets/DaoFacet.sol:DaoFacet",
            "label": "description",
            "offset": 0,
            "slot": "3",
            "type": "t_string_storage"
          },
          {
            "astId": 680,
            "contract": "contracts/facets/DaoFacet.sol:DaoFacet",
            "label": "proposalType",
            "offset": 0,
            "slot": "4",
            "type": "t_enum(ProposalType)649"
          },
          {
            "astId": 683,
            "contract": "contracts/facets/DaoFacet.sol:DaoFacet",
            "label": "proposalStatus",
            "offset": 1,
            "slot": "4",
            "type": "t_enum(ProposalStatus)653"
          },
          {
            "astId": 685,
            "contract": "contracts/facets/DaoFacet.sol:DaoFacet",
            "label": "startDate",
            "offset": 0,
            "slot": "5",
            "type": "t_uint256"
          },
          {
            "astId": 687,
            "contract": "contracts/facets/DaoFacet.sol:DaoFacet",
            "label": "duration",
            "offset": 0,
            "slot": "6",
            "type": "t_uint256"
          },
          {
            "astId": 691,
            "contract": "contracts/facets/DaoFacet.sol:DaoFacet",
            "label": "options",
            "offset": 0,
            "slot": "7",
            "type": "t_array(t_struct(Option)660_storage)dyn_storage"
          },
          {
            "astId": 695,
            "contract": "contracts/facets/DaoFacet.sol:DaoFacet",
            "label": "voters",
            "offset": 0,
            "slot": "8",
            "type": "t_array(t_struct(Voter)669_storage)dyn_storage"
          }
        ],
        "numberOfBytes": "288"
      },
      "t_struct(Voter)669_storage": {
        "encoding": "inplace",
        "label": "struct Voter",
        "members": [
          {
            "astId": 662,
            "contract": "contracts/facets/DaoFacet.sol:DaoFacet",
            "label": "voterAddress",
            "offset": 0,
            "slot": "0",
            "type": "t_address"
          },
          {
            "astId": 665,
            "contract": "contracts/facets/DaoFacet.sol:DaoFacet",
            "label": "optionIndexes",
            "offset": 0,
            "slot": "1",
            "type": "t_array(t_uint256)dyn_storage"
          },
          {
            "astId": 668,
            "contract": "contracts/facets/DaoFacet.sol:DaoFacet",
            "label": "optionVotes",
            "offset": 0,
            "slot": "2",
            "type": "t_array(t_uint256)dyn_storage"
          }
        ],
        "numberOfBytes": "96"
      },
      "t_uint256": {
        "encoding": "inplace",
        "label": "uint256",
        "numberOfBytes": "32"
      }
    }
  }
}