{
  "address": "0x76460E1174637f3885ADD3631Ff1979350160020",
  "abi": [
    {
      "anonymous": false,
      "inputs": [
        {
          "indexed": false,
          "internalType": "uint256",
          "name": "id",
          "type": "uint256"
        },
        {
          "components": [
            {
              "internalType": "address",
              "name": "voterAddress",
              "type": "address"
            },
            {
              "internalType": "uint256[]",
              "name": "optionIndexes",
              "type": "uint256[]"
            },
            {
              "internalType": "uint256[]",
              "name": "optionVotes",
              "type": "uint256[]"
            }
          ],
          "indexed": false,
          "internalType": "struct Voter",
          "name": "voter",
          "type": "tuple"
        },
        {
          "components": [
            {
              "internalType": "uint256",
              "name": "index",
              "type": "uint256"
            },
            {
              "internalType": "string",
              "name": "optionText",
              "type": "string"
            },
            {
              "internalType": "uint256",
              "name": "vote",
              "type": "uint256"
            }
          ],
          "indexed": false,
          "internalType": "struct Option[]",
          "name": "options",
          "type": "tuple[]"
        }
      ],
      "name": "Vote",
      "type": "event"
    },
    {
      "anonymous": false,
      "inputs": [
        {
          "indexed": false,
          "internalType": "uint256",
          "name": "id",
          "type": "uint256"
        },
        {
          "indexed": false,
          "internalType": "uint256[]",
          "name": "optionVotes",
          "type": "uint256[]"
        },
        {
          "indexed": false,
          "internalType": "uint256[]",
          "name": "optionIndexes",
          "type": "uint256[]"
        },
        {
          "indexed": false,
          "internalType": "address",
          "name": "voterAddress",
          "type": "address"
        },
        {
          "components": [
            {
              "internalType": "uint256",
              "name": "index",
              "type": "uint256"
            },
            {
              "internalType": "string",
              "name": "optionText",
              "type": "string"
            },
            {
              "internalType": "uint256",
              "name": "vote",
              "type": "uint256"
            }
          ],
          "indexed": false,
          "internalType": "struct Option[]",
          "name": "proposalOptions",
          "type": "tuple[]"
        }
      ],
      "name": "VoteCreated",
      "type": "event"
    },
    {
      "inputs": [
        {
          "internalType": "uint256",
          "name": "id",
          "type": "uint256"
        },
        {
          "internalType": "address",
          "name": "voter",
          "type": "address"
        }
      ],
      "name": "checkVotingStatus",
      "outputs": [
        {
          "internalType": "int256",
          "name": "",
          "type": "int256"
        }
      ],
      "stateMutability": "view",
      "type": "function"
    },
    {
      "inputs": [
        {
          "internalType": "uint256",
          "name": "id",
          "type": "uint256"
        },
        {
          "components": [
            {
              "internalType": "uint256",
              "name": "id",
              "type": "uint256"
            },
            {
              "internalType": "address",
              "name": "creator",
              "type": "address"
            },
            {
              "internalType": "string",
              "name": "title",
              "type": "string"
            },
            {
              "internalType": "string",
              "name": "description",
              "type": "string"
            },
            {
              "internalType": "enum ProposalType",
              "name": "proposalType",
              "type": "uint8"
            },
            {
              "internalType": "enum ProposalStatus",
              "name": "proposalStatus",
              "type": "uint8"
            },
            {
              "internalType": "uint256",
              "name": "startDate",
              "type": "uint256"
            },
            {
              "internalType": "uint256",
              "name": "duration",
              "type": "uint256"
            },
            {
              "components": [
                {
                  "internalType": "uint256",
                  "name": "index",
                  "type": "uint256"
                },
                {
                  "internalType": "string",
                  "name": "optionText",
                  "type": "string"
                },
                {
                  "internalType": "uint256",
                  "name": "vote",
                  "type": "uint256"
                }
              ],
              "internalType": "struct Option[]",
              "name": "options",
              "type": "tuple[]"
            },
            {
              "components": [
                {
                  "internalType": "address",
                  "name": "voterAddress",
                  "type": "address"
                },
                {
                  "internalType": "uint256[]",
                  "name": "optionIndexes",
                  "type": "uint256[]"
                },
                {
                  "internalType": "uint256[]",
                  "name": "optionVotes",
                  "type": "uint256[]"
                }
              ],
              "internalType": "struct Voter[]",
              "name": "voters",
              "type": "tuple[]"
            }
          ],
          "internalType": "struct Proposal[]",
          "name": "proposalsArray",
          "type": "tuple[]"
        }
      ],
      "name": "getProposalIndex",
      "outputs": [
        {
          "internalType": "int256",
          "name": "",
          "type": "int256"
        }
      ],
      "stateMutability": "pure",
      "type": "function"
    },
    {
      "inputs": [
        {
          "internalType": "uint256",
          "name": "id",
          "type": "uint256"
        },
        {
          "internalType": "uint256[]",
          "name": "indexes",
          "type": "uint256[]"
        },
        {
          "internalType": "uint256[]",
          "name": "votingPower",
          "type": "uint256[]"
        }
      ],
      "name": "voteProposalByQuadratic",
      "outputs": [],
      "stateMutability": "nonpayable",
      "type": "function"
    }
  ],
  "transactionHash": "0xf4d74723e28b1c2dae4abda25d0c7db0eb4a746e5ae56fe0b9f58f0e58fe3b84",
  "args": [],
  "numDeployments": 2,
  "solcInputHash": "47d1b98fee85202380e996d7eb635716",
  "bytecode": "0x608060405234801561001057600080fd5b50600160008190555061316d806100286000396000f3fe608060405234801561001057600080fd5b50600436106100415760003560e01c80632d2a15441461004657806397ae153514610062578063da12935c14610092575b600080fd5b610060600480360381019061005b9190611c9d565b6100c2565b005b61007c600480360381019061007791906123b4565b611359565b6040516100899190612429565b60405180910390f35b6100ac60048036038101906100a79190612444565b6113dd565b6040516100b99190612429565b60405180910390f35b600260005403610107576040517f08c379a00000000000000000000000000000000000000000000000000000000081526004016100fe906124e1565b60405180910390fd5b6002600081905550600061011a82611604565b9050600061012885336113dd565b905060006001600601600087815260200190815260200160002060405180610140016040529081600082015481526020016001820160009054906101000a900473ffffffffffffffffffffffffffffffffffffffff1673ffffffffffffffffffffffffffffffffffffffff1673ffffffffffffffffffffffffffffffffffffffff1681526020016002820180546101be90612530565b80601f01602080910402602001604051908101604052809291908181526020018280546101ea90612530565b80156102375780601f1061020c57610100808354040283529160200191610237565b820191906000526020600020905b81548152906001019060200180831161021a57829003601f168201915b5050505050815260200160038201805461025090612530565b80601f016020809104026020016040519081016040528092919081815260200182805461027c90612530565b80156102c95780601f1061029e576101008083540402835291602001916102c9565b820191906000526020600020905b8154815290600101906020018083116102ac57829003601f168201915b505050505081526020016004820160009054906101000a900460ff1660028111156102f7576102f6612561565b5b600281111561030957610308612561565b5b81526020016004820160019054906101000a900460ff16600281111561033257610331612561565b5b600281111561034457610343612561565b5b8152602001600582015481526020016006820154815260200160078201805480602002602001604051908101604052809291908181526020016000905b828210156104595783829060005260206000209060030201604051806060016040529081600082015481526020016001820180546103be90612530565b80601f01602080910402602001604051908101604052809291908181526020018280546103ea90612530565b80156104375780601f1061040c57610100808354040283529160200191610437565b820191906000526020600020905b81548152906001019060200180831161041a57829003601f168201915b5050505050815260200160028201548152505081526020019060010190610381565b50505050815260200160088201805480602002602001604051908101604052809291908181526020016000905b828210156105be57838290600052602060002090600302016040518060600160405290816000820160009054906101000a900473ffffffffffffffffffffffffffffffffffffffff1673ffffffffffffffffffffffffffffffffffffffff1673ffffffffffffffffffffffffffffffffffffffff1681526020016001820180548060200260200160405190810160405280929190818152602001828054801561054e57602002820191906000526020600020905b81548152602001906001019080831161053a575b50505050508152602001600282018054806020026020016040519081016040528092919081815260200182805480156105a657602002820191906000526020600020905b815481526020019060010190808311610592575b50505050508152505081526020019060010190610486565b505050508152505090506002808111156105db576105da612561565b5b816080015160028111156105f2576105f1612561565b5b14610632576040517f08c379a0000000000000000000000000000000000000000000000000000000008152600401610629906125dc565b60405180910390fd5b8060e001518160c00151610646919061262b565b4210610687576040517f08c379a000000000000000000000000000000000000000000000000000000000815260040161067e906126ab565b60405180910390fd5b600082126106ca576040517f08c379a00000000000000000000000000000000000000000000000000000000081526004016106c190612717565b60405180910390fd5b82600160040160009054906101000a900473ffffffffffffffffffffffffffffffffffffffff1673ffffffffffffffffffffffffffffffffffffffff166370a08231336040518263ffffffff1660e01b81526004016107299190612746565b602060405180830381865afa158015610746573d6000803e3d6000fd5b505050506040513d601f19601f8201168201806040525081019061076a9190612776565b10156107ab576040517f08c379a00000000000000000000000000000000000000000000000000000000081526004016107a2906127ef565b60405180910390fd5b600160040160009054906101000a900473ffffffffffffffffffffffffffffffffffffffff1673ffffffffffffffffffffffffffffffffffffffff166323b872dd3330866040518463ffffffff1660e01b815260040161080d9392919061281e565b6020604051808303816000875af115801561082c573d6000803e3d6000fd5b505050506040513d601f19601f82011682018060405250810190610850919061288d565b5060005b855181101561093a576000868281518110610872576108716128ba565b5b602002602001015190506000868381518110610891576108906128ba565b5b602002602001015190506108bb633b9aca006108ac83611656565b6108b691906128e9565b6116d0565b633b9aca006108c982611656565b6108d391906128e9565b600160060160008b815260200190815260200160002060070183815481106108fe576108fd6128ba565b5b9060005260206000209060030201600201600082825461091e919061262b565b92505081905550505080806109329061292b565b915050610854565b506000845167ffffffffffffffff81111561095857610957611b5a565b5b6040519080825280602002602001820160405280156109865781602001602082028036833780820191505090505b50905060005b85518110156109f957633b9aca006109bd8783815181106109b0576109af6128ba565b5b6020026020010151611656565b6109c791906128e9565b8282815181106109da576109d96128ba565b5b60200260200101818152505080806109f19061292b565b91505061098c565b50600060405180606001604052803373ffffffffffffffffffffffffffffffffffffffff1681526020018881526020018381525090506001600601600089815260200190815260200160002060080181908060018154018082558091505060019003906000526020600020906003020160009091909190915060008201518160000160006101000a81548173ffffffffffffffffffffffffffffffffffffffff021916908373ffffffffffffffffffffffffffffffffffffffff1602179055506020820151816001019080519060200190610ad5929190611792565b506040820151816002019080519060200190610af2929190611792565b5050506000610fd4896001600801805480602002602001604051908101604052809291908181526020016000905b82821015610fcb578382906000526020600020906009020160405180610140016040529081600082015481526020016001820160009054906101000a900473ffffffffffffffffffffffffffffffffffffffff1673ffffffffffffffffffffffffffffffffffffffff1673ffffffffffffffffffffffffffffffffffffffff168152602001600282018054610bb490612530565b80601f0160208091040260200160405190810160405280929190818152602001828054610be090612530565b8015610c2d5780601f10610c0257610100808354040283529160200191610c2d565b820191906000526020600020905b815481529060010190602001808311610c1057829003601f168201915b50505050508152602001600382018054610c4690612530565b80601f0160208091040260200160405190810160405280929190818152602001828054610c7290612530565b8015610cbf5780601f10610c9457610100808354040283529160200191610cbf565b820191906000526020600020905b815481529060010190602001808311610ca257829003601f168201915b505050505081526020016004820160009054906101000a900460ff166002811115610ced57610cec612561565b5b6002811115610cff57610cfe612561565b5b81526020016004820160019054906101000a900460ff166002811115610d2857610d27612561565b5b6002811115610d3a57610d39612561565b5b8152602001600582015481526020016006820154815260200160078201805480602002602001604051908101604052809291908181526020016000905b82821015610e4f578382906000526020600020906003020160405180606001604052908160008201548152602001600182018054610db490612530565b80601f0160208091040260200160405190810160405280929190818152602001828054610de090612530565b8015610e2d5780601f10610e0257610100808354040283529160200191610e2d565b820191906000526020600020905b815481529060010190602001808311610e1057829003601f168201915b5050505050815260200160028201548152505081526020019060010190610d77565b50505050815260200160088201805480602002602001604051908101604052809291908181526020016000905b82821015610fb457838290600052602060002090600302016040518060600160405290816000820160009054906101000a900473ffffffffffffffffffffffffffffffffffffffff1673ffffffffffffffffffffffffffffffffffffffff1673ffffffffffffffffffffffffffffffffffffffff16815260200160018201805480602002602001604051908101604052809291908181526020018280548015610f4457602002820191906000526020600020905b815481526020019060010190808311610f30575b5050505050815260200160028201805480602002602001604051908101604052809291908181526020018280548015610f9c57602002820191906000526020600020905b815481526020019060010190808311610f88575b50505050508152505081526020019060010190610e7c565b505050508152505081526020019060010190610b20565b50505050611359565b90507fffffffffffffffffffffffffffffffffffffffffffffffffffffffffffffffff8103611038576040517f08c379a000000000000000000000000000000000000000000000000000000000815260040161102f906129bf565b60405180910390fd5b6001600801818154811061104f5761104e6128ba565b5b90600052602060002090600902016000808201600090556001820160006101000a81549073ffffffffffffffffffffffffffffffffffffffff021916905560028201600061109d91906117df565b6003820160006110ad91906117df565b6004820160006101000a81549060ff02191690556004820160016101000a81549060ff0219169055600582016000905560068201600090556007820160006110f5919061181f565b6008820160006111059190611843565b5050600160060160008a815260200190815260200160002060016008018281548110611134576111336128ba565b5b9060005260206000209060090201600082015481600001556001820160009054906101000a900473ffffffffffffffffffffffffffffffffffffffff168160010160006101000a81548173ffffffffffffffffffffffffffffffffffffffff021916908373ffffffffffffffffffffffffffffffffffffffff160217905550600282018160020190816111c79190612ba1565b50600382018160030190816111dc9190612ba1565b506004820160009054906101000a900460ff168160040160006101000a81548160ff0219169083600281111561121557611214612561565b5b02179055506004820160019054906101000a900460ff168160040160016101000a81548160ff0219169083600281111561125257611251612561565b5b021790555060058201548160050155600682015481600601556007820181600701908054611281929190611867565b5060088201816008019080546112989291906118e8565b509050507fedd89be9eb4a922724633e7ddfae54c27ffbc845b984f49e743abe01853c9e928983600160060160008d81526020019081526020016000206007016040516112e793929190612fa0565b60405180910390a17f5c7909d066a31583e19be67075f97226281463a14932070aee91b36738f5266489848a33600160060160008f815260200190815260200160002060070160405161133e959493929190613054565b60405180910390a15050505050506001600081905550505050565b600080600090505b82518110156113b257600083828151811061137f5761137e6128ba565b5b602002602001015190508481600001510361139e5781925050506113d7565b5080806113aa9061292b565b915050611361565b507fffffffffffffffffffffffffffffffffffffffffffffffffffffffffffffffff90505b92915050565b60008060016006016000858152602001908152602001600020600801805480602002602001604051908101604052809291908181526020016000905b8282101561155157838290600052602060002090600302016040518060600160405290816000820160009054906101000a900473ffffffffffffffffffffffffffffffffffffffff1673ffffffffffffffffffffffffffffffffffffffff1673ffffffffffffffffffffffffffffffffffffffff168152602001600182018054806020026020016040519081016040528092919081815260200182805480156114e157602002820191906000526020600020905b8154815260200190600101908083116114cd575b505050505081526020016002820180548060200260200160405190810160405280929190818152602001828054801561153957602002820191906000526020600020905b815481526020019060010190808311611525575b50505050508152505081526020019060010190611419565b50505050905060005b81518110156115d8576000828281518110611578576115776128ba565b5b60200260200101516000015190508073ffffffffffffffffffffffffffffffffffffffff168573ffffffffffffffffffffffffffffffffffffffff16036115c4578193505050506115fe565b5080806115d09061292b565b91505061155a565b507fffffffffffffffffffffffffffffffffffffffffffffffffffffffffffffffff9150505b92915050565b600080600090505b825181101561165057828181518110611628576116276128ba565b5b60200260200101518261163b919061262b565b915080806116489061292b565b91505061160c565b50919050565b600060038211156116bd578190506000600160028461167591906130eb565b61167f919061262b565b90505b818110156116b757809150600281828561169c91906130eb565b6116a6919061262b565b6116b091906130eb565b9050611682565b506116cb565b600082146116ca57600190505b5b919050565b611766816040516024016116e4919061311c565b6040516020818303038152906040527ff82c50f1000000000000000000000000000000000000000000000000000000007bffffffffffffffffffffffffffffffffffffffffffffffffffffffff19166020820180517bffffffffffffffffffffffffffffffffffffffffffffffffffffffff8381831617835250505050611769565b50565b60008151905060006a636f6e736f6c652e6c6f679050602083016000808483855afa5050505050565b8280548282559060005260206000209081019282156117ce579160200282015b828111156117cd5782518255916020019190600101906117b2565b5b5090506117db91906119d5565b5090565b5080546117eb90612530565b6000825580601f106117fd575061181c565b601f01602090049060005260206000209081019061181b91906119d5565b5b50565b508054600082556003029060005260206000209081019061184091906119f2565b50565b50805460008255600302906000526020600020908101906118649190611a29565b50565b8280548282559060005260206000209060030281019282156118d75760005260206000209160030282015b828111156118d657828260008201548160000155600182018160010190816118ba9190612ba1565b5060028201548160020155505091600301919060030190611892565b5b5090506118e491906119f2565b5090565b8280548282559060005260206000209060030281019282156119c45760005260206000209160030282015b828111156119c35782826000820160009054906101000a900473ffffffffffffffffffffffffffffffffffffffff168160000160006101000a81548173ffffffffffffffffffffffffffffffffffffffff021916908373ffffffffffffffffffffffffffffffffffffffff160217905550600182018160010190805461199a929190611a87565b5060028201816002019080546119b1929190611a87565b50505091600301919060030190611913565b5b5090506119d19190611a29565b5090565b5b808211156119ee5760008160009055506001016119d6565b5090565b5b80821115611a2557600080820160009055600182016000611a1491906117df565b6002820160009055506003016119f3565b5090565b5b80821115611a8357600080820160006101000a81549073ffffffffffffffffffffffffffffffffffffffff0219169055600182016000611a6a9190611ad9565b600282016000611a7a9190611ad9565b50600301611a2a565b5090565b828054828255906000526020600020908101928215611ac85760005260206000209182015b82811115611ac7578254825591600101919060010190611aac565b5b509050611ad591906119d5565b5090565b5080546000825590600052602060002090810190611af791906119d5565b50565b6000604051905090565b600080fd5b600080fd5b6000819050919050565b611b2181611b0e565b8114611b2c57600080fd5b50565b600081359050611b3e81611b18565b92915050565b600080fd5b6000601f19601f8301169050919050565b7f4e487b7100000000000000000000000000000000000000000000000000000000600052604160045260246000fd5b611b9282611b49565b810181811067ffffffffffffffff82111715611bb157611bb0611b5a565b5b80604052505050565b6000611bc4611afa565b9050611bd08282611b89565b919050565b600067ffffffffffffffff821115611bf057611bef611b5a565b5b602082029050602081019050919050565b600080fd5b6000611c19611c1484611bd5565b611bba565b90508083825260208201905060208402830185811115611c3c57611c3b611c01565b5b835b81811015611c655780611c518882611b2f565b845260208401935050602081019050611c3e565b5050509392505050565b600082601f830112611c8457611c83611b44565b5b8135611c94848260208601611c06565b91505092915050565b600080600060608486031215611cb657611cb5611b04565b5b6000611cc486828701611b2f565b935050602084013567ffffffffffffffff811115611ce557611ce4611b09565b5b611cf186828701611c6f565b925050604084013567ffffffffffffffff811115611d1257611d11611b09565b5b611d1e86828701611c6f565b9150509250925092565b600067ffffffffffffffff821115611d4357611d42611b5a565b5b602082029050602081019050919050565b600080fd5b600080fd5b600073ffffffffffffffffffffffffffffffffffffffff82169050919050565b6000611d8982611d5e565b9050919050565b611d9981611d7e565b8114611da457600080fd5b50565b600081359050611db681611d90565b92915050565b600080fd5b600067ffffffffffffffff821115611ddc57611ddb611b5a565b5b611de582611b49565b9050602081019050919050565b82818337600083830152505050565b6000611e14611e0f84611dc1565b611bba565b905082815260208101848484011115611e3057611e2f611dbc565b5b611e3b848285611df2565b509392505050565b600082601f830112611e5857611e57611b44565b5b8135611e68848260208601611e01565b91505092915050565b60038110611e7e57600080fd5b50565b600081359050611e9081611e71565b92915050565b60038110611ea357600080fd5b50565b600081359050611eb581611e96565b92915050565b600067ffffffffffffffff821115611ed657611ed5611b5a565b5b602082029050602081019050919050565b600060608284031215611efd57611efc611d54565b5b611f076060611bba565b90506000611f1784828501611b2f565b600083015250602082013567ffffffffffffffff811115611f3b57611f3a611d59565b5b611f4784828501611e43565b6020830152506040611f5b84828501611b2f565b60408301525092915050565b6000611f7a611f7584611ebb565b611bba565b90508083825260208201905060208402830185811115611f9d57611f9c611c01565b5b835b81811015611fe457803567ffffffffffffffff811115611fc257611fc1611b44565b5b808601611fcf8982611ee7565b85526020850194505050602081019050611f9f565b5050509392505050565b600082601f83011261200357612002611b44565b5b8135612013848260208601611f67565b91505092915050565b600067ffffffffffffffff82111561203757612036611b5a565b5b602082029050602081019050919050565b60006060828403121561205e5761205d611d54565b5b6120686060611bba565b9050600061207884828501611da7565b600083015250602082013567ffffffffffffffff81111561209c5761209b611d59565b5b6120a884828501611c6f565b602083015250604082013567ffffffffffffffff8111156120cc576120cb611d59565b5b6120d884828501611c6f565b60408301525092915050565b60006120f76120f28461201c565b611bba565b9050808382526020820190506020840283018581111561211a57612119611c01565b5b835b8181101561216157803567ffffffffffffffff81111561213f5761213e611b44565b5b80860161214c8982612048565b8552602085019450505060208101905061211c565b5050509392505050565b600082601f8301126121805761217f611b44565b5b81356121908482602086016120e4565b91505092915050565b600061014082840312156121b0576121af611d54565b5b6121bb610140611bba565b905060006121cb84828501611b2f565b60008301525060206121df84828501611da7565b602083015250604082013567ffffffffffffffff81111561220357612202611d59565b5b61220f84828501611e43565b604083015250606082013567ffffffffffffffff81111561223357612232611d59565b5b61223f84828501611e43565b606083015250608061225384828501611e81565b60808301525060a061226784828501611ea6565b60a08301525060c061227b84828501611b2f565b60c08301525060e061228f84828501611b2f565b60e08301525061010082013567ffffffffffffffff8111156122b4576122b3611d59565b5b6122c084828501611fee565b6101008301525061012082013567ffffffffffffffff8111156122e6576122e5611d59565b5b6122f28482850161216b565b6101208301525092915050565b600061231261230d84611d28565b611bba565b9050808382526020820190506020840283018581111561233557612334611c01565b5b835b8181101561237c57803567ffffffffffffffff81111561235a57612359611b44565b5b8086016123678982612199565b85526020850194505050602081019050612337565b5050509392505050565b600082601f83011261239b5761239a611b44565b5b81356123ab8482602086016122ff565b91505092915050565b600080604083850312156123cb576123ca611b04565b5b60006123d985828601611b2f565b925050602083013567ffffffffffffffff8111156123fa576123f9611b09565b5b61240685828601612386565b9150509250929050565b6000819050919050565b61242381612410565b82525050565b600060208201905061243e600083018461241a565b92915050565b6000806040838503121561245b5761245a611b04565b5b600061246985828601611b2f565b925050602061247a85828601611da7565b9150509250929050565b600082825260208201905092915050565b7f5265656e7472616e637947756172643a207265656e7472616e742063616c6c00600082015250565b60006124cb601f83612484565b91506124d682612495565b602082019050919050565b600060208201905081810360008301526124fa816124be565b9050919050565b7f4e487b7100000000000000000000000000000000000000000000000000000000600052602260045260246000fd5b6000600282049050600182168061254857607f821691505b60208210810361255b5761255a612501565b5b50919050565b7f4e487b7100000000000000000000000000000000000000000000000000000000600052602160045260246000fd5b7f71756164726174696320766f74696e67206e6f7420616c6c6f77656400000000600082015250565b60006125c6601c83612484565b91506125d182612590565b602082019050919050565b600060208201905081810360008301526125f5816125b9565b9050919050565b7f4e487b7100000000000000000000000000000000000000000000000000000000600052601160045260246000fd5b600061263682611b0e565b915061264183611b0e565b9250828201905080821115612659576126586125fc565b5b92915050565b7f50726f706f73616c20636c6f7365640000000000000000000000000000000000600082015250565b6000612695600f83612484565b91506126a08261265f565b602082019050919050565b600060208201905081810360008301526126c481612688565b9050919050565b7f566f74656420616c726561647900000000000000000000000000000000000000600082015250565b6000612701600d83612484565b915061270c826126cb565b602082019050919050565b60006020820190508181036000830152612730816126f4565b9050919050565b61274081611d7e565b82525050565b600060208201905061275b6000830184612737565b92915050565b60008151905061277081611b18565b92915050565b60006020828403121561278c5761278b611b04565b5b600061279a84828501612761565b91505092915050565b7f496e73756666696369656e742056500000000000000000000000000000000000600082015250565b60006127d9600f83612484565b91506127e4826127a3565b602082019050919050565b60006020820190508181036000830152612808816127cc565b9050919050565b61281881611b0e565b82525050565b60006060820190506128336000830186612737565b6128406020830185612737565b61284d604083018461280f565b949350505050565b60008115159050919050565b61286a81612855565b811461287557600080fd5b50565b60008151905061288781612861565b92915050565b6000602082840312156128a3576128a2611b04565b5b60006128b184828501612878565b91505092915050565b7f4e487b7100000000000000000000000000000000000000000000000000000000600052603260045260246000fd5b60006128f482611b0e565b91506128ff83611b0e565b925082820261290d81611b0e565b91508282048414831517612924576129236125fc565b5b5092915050565b600061293682611b0e565b91507fffffffffffffffffffffffffffffffffffffffffffffffffffffffffffffffff8203612968576129676125fc565b5b600182019050919050565b7f50726f706f73616c2063616e6e6f7420626520666f756e640000000000000000600082015250565b60006129a9601883612484565b91506129b482612973565b602082019050919050565b600060208201905081810360008301526129d88161299c565b9050919050565b6000815490506129ee81612530565b9050919050565b60008190508160005260206000209050919050565b60006020601f8301049050919050565b600082821b905092915050565b600060088302612a577fffffffffffffffffffffffffffffffffffffffffffffffffffffffffffffffff82612a1a565b612a618683612a1a565b95508019841693508086168417925050509392505050565b6000819050919050565b6000612a9e612a99612a9484611b0e565b612a79565b611b0e565b9050919050565b6000819050919050565b612ab883612a83565b612acc612ac482612aa5565b848454612a27565b825550505050565b600090565b612ae1612ad4565b612aec818484612aaf565b505050565b5b81811015612b1057612b05600082612ad9565b600181019050612af2565b5050565b601f821115612b5557612b26816129f5565b612b2f84612a0a565b81016020851015612b3e578190505b612b52612b4a85612a0a565b830182612af1565b50505b505050565b600082821c905092915050565b6000612b7860001984600802612b5a565b1980831691505092915050565b6000612b918383612b67565b9150826002028217905092915050565b818103612baf575050612c87565b612bb8826129df565b67ffffffffffffffff811115612bd157612bd0611b5a565b5b612bdb8254612530565b612be6828285612b14565b6000601f831160018114612c155760008415612c03578287015490505b612c0d8582612b85565b865550612c80565b601f198416612c23876129f5565b9650612c2e866129f5565b60005b82811015612c5657848901548255600182019150600185019450602081019050612c31565b86831015612c735784890154612c6f601f891682612b67565b8355505b6001600288020188555050505b5050505050505b565b612c9281611d7e565b82525050565b600081519050919050565b600082825260208201905092915050565b6000819050602082019050919050565b612ccd81611b0e565b82525050565b6000612cdf8383612cc4565b60208301905092915050565b6000602082019050919050565b6000612d0382612c98565b612d0d8185612ca3565b9350612d1883612cb4565b8060005b83811015612d49578151612d308882612cd3565b9750612d3b83612ceb565b925050600181019050612d1c565b5085935050505092915050565b6000606083016000830151612d6e6000860182612c89565b5060208301518482036020860152612d868282612cf8565b91505060408301518482036040860152612da08282612cf8565b9150508091505092915050565b600081549050919050565b600082825260208201905092915050565b60008190508160005260206000209050919050565b60008160001c9050919050565b6000819050919050565b6000612e08612e0383612dde565b612deb565b9050919050565b600082825260208201905092915050565b60008154612e2d81612530565b612e378186612e0f565b94506001821660008114612e525760018114612e6857612e9b565b60ff198316865281151560200286019350612e9b565b612e71856129f5565b60005b83811015612e9357815481890152600182019150602081019050612e74565b808801955050505b50505092915050565b6000606083016000808401549050612ebb81612df5565b612ec86000870182612cc4565b50600184018583036020870152612edf8382612e20565b92505060028401549050612ef281612df5565b612eff6040870182612cc4565b50819250505092915050565b6000612f178383612ea4565b905092915050565b6000600382019050919050565b6000612f3782612dad565b612f418185612db8565b935083602082028501612f5385612dc9565b8060005b85811015612f8e57848403895281612f6f8582612f0b565b9450612f7a83612f1f565b925060208a01995050600181019050612f57565b50829750879550505050505092915050565b6000606082019050612fb5600083018661280f565b8181036020830152612fc78185612d56565b90508181036040830152612fdb8184612f2c565b9050949350505050565b600082825260208201905092915050565b600061300182612c98565b61300b8185612fe5565b935061301683612cb4565b8060005b8381101561304757815161302e8882612cd3565b975061303983612ceb565b92505060018101905061301a565b5085935050505092915050565b600060a082019050613069600083018861280f565b818103602083015261307b8187612ff6565b9050818103604083015261308f8186612ff6565b905061309e6060830185612737565b81810360808301526130b08184612f2c565b90509695505050505050565b7f4e487b7100000000000000000000000000000000000000000000000000000000600052601260045260246000fd5b60006130f682611b0e565b915061310183611b0e565b925082613111576131106130bc565b5b828204905092915050565b6000602082019050613131600083018461280f565b9291505056fea264697066735822122063c164449e43d881481ea97a38e2b876c8537d426bf4dc934b7ee1212121c0e664736f6c63430008110033",
  "devdoc": {
    "kind": "dev",
    "methods": {},
    "version": 1
  },
  "userdoc": {
    "kind": "user",
    "methods": {},
    "version": 1
  },
  "storageLayout": {
    "storage": [
      {
        "astId": 10,
        "contract": "contracts/facets/QuadraticVoteFacet.sol:QuadraticVoteFacet",
        "label": "_status",
        "offset": 0,
        "slot": "0",
        "type": "t_uint256"
      },
      {
        "astId": 209,
        "contract": "contracts/facets/QuadraticVoteFacet.sol:QuadraticVoteFacet",
        "label": "s",
        "offset": 0,
        "slot": "1",
        "type": "t_struct(AppStorage)731_storage"
      }
    ],
    "types": {
      "t_address": {
        "encoding": "inplace",
        "label": "address",
        "numberOfBytes": "20"
      },
      "t_array(t_struct(Option)657_storage)dyn_storage": {
        "base": "t_struct(Option)657_storage",
        "encoding": "dynamic_array",
        "label": "struct Option[]",
        "numberOfBytes": "32"
      },
      "t_array(t_struct(Proposal)693_storage)dyn_storage": {
        "base": "t_struct(Proposal)693_storage",
        "encoding": "dynamic_array",
        "label": "struct Proposal[]",
        "numberOfBytes": "32"
      },
      "t_array(t_struct(Voter)666_storage)dyn_storage": {
        "base": "t_struct(Voter)666_storage",
        "encoding": "dynamic_array",
        "label": "struct Voter[]",
        "numberOfBytes": "32"
      },
      "t_array(t_uint256)dyn_storage": {
        "base": "t_uint256",
        "encoding": "dynamic_array",
        "label": "uint256[]",
        "numberOfBytes": "32"
      },
      "t_contract(IERC20)117": {
        "encoding": "inplace",
        "label": "contract IERC20",
        "numberOfBytes": "20"
      },
      "t_enum(ProposalStatus)650": {
        "encoding": "inplace",
        "label": "enum ProposalStatus",
        "numberOfBytes": "1"
      },
      "t_enum(ProposalType)646": {
        "encoding": "inplace",
        "label": "enum ProposalType",
        "numberOfBytes": "1"
      },
      "t_mapping(t_address,t_mapping(t_address,t_uint256))": {
        "encoding": "mapping",
        "key": "t_address",
        "label": "mapping(address => mapping(address => uint256))",
        "numberOfBytes": "32",
        "value": "t_mapping(t_address,t_uint256)"
      },
      "t_mapping(t_address,t_struct(Counter)123_storage)": {
        "encoding": "mapping",
        "key": "t_address",
        "label": "mapping(address => struct Counters.Counter)",
        "numberOfBytes": "32",
        "value": "t_struct(Counter)123_storage"
      },
      "t_mapping(t_address,t_uint256)": {
        "encoding": "mapping",
        "key": "t_address",
        "label": "mapping(address => uint256)",
        "numberOfBytes": "32",
        "value": "t_uint256"
      },
      "t_mapping(t_uint256,t_struct(Proposal)693_storage)": {
        "encoding": "mapping",
        "key": "t_uint256",
        "label": "mapping(uint256 => struct Proposal)",
        "numberOfBytes": "32",
        "value": "t_struct(Proposal)693_storage"
      },
      "t_string_storage": {
        "encoding": "bytes",
        "label": "string",
        "numberOfBytes": "32"
      },
      "t_struct(AppStorage)731_storage": {
        "encoding": "inplace",
        "label": "struct AppStorage",
        "members": [
          {
            "astId": 695,
            "contract": "contracts/facets/QuadraticVoteFacet.sol:QuadraticVoteFacet",
            "label": "totalSupply",
            "offset": 0,
            "slot": "0",
            "type": "t_uint256"
          },
          {
            "astId": 699,
            "contract": "contracts/facets/QuadraticVoteFacet.sol:QuadraticVoteFacet",
            "label": "balances",
            "offset": 0,
            "slot": "1",
            "type": "t_mapping(t_address,t_uint256)"
          },
          {
            "astId": 705,
            "contract": "contracts/facets/QuadraticVoteFacet.sol:QuadraticVoteFacet",
            "label": "allowances",
            "offset": 0,
            "slot": "2",
            "type": "t_mapping(t_address,t_mapping(t_address,t_uint256))"
          },
          {
            "astId": 710,
            "contract": "contracts/facets/QuadraticVoteFacet.sol:QuadraticVoteFacet",
            "label": "nonces",
            "offset": 0,
            "slot": "3",
            "type": "t_mapping(t_address,t_struct(Counter)123_storage)"
          },
          {
            "astId": 713,
            "contract": "contracts/facets/QuadraticVoteFacet.sol:QuadraticVoteFacet",
            "label": "larToken",
            "offset": 0,
            "slot": "4",
            "type": "t_contract(IERC20)117"
          },
          {
            "astId": 715,
            "contract": "contracts/facets/QuadraticVoteFacet.sol:QuadraticVoteFacet",
            "label": "proposalId",
            "offset": 0,
            "slot": "5",
            "type": "t_uint256"
          },
          {
            "astId": 720,
            "contract": "contracts/facets/QuadraticVoteFacet.sol:QuadraticVoteFacet",
            "label": "proposals",
            "offset": 0,
            "slot": "6",
            "type": "t_mapping(t_uint256,t_struct(Proposal)693_storage)"
          },
          {
            "astId": 723,
            "contract": "contracts/facets/QuadraticVoteFacet.sol:QuadraticVoteFacet",
            "label": "proposalsList",
            "offset": 0,
            "slot": "7",
            "type": "t_array(t_uint256)dyn_storage"
          },
          {
            "astId": 727,
            "contract": "contracts/facets/QuadraticVoteFacet.sol:QuadraticVoteFacet",
            "label": "proposalsArray",
            "offset": 0,
            "slot": "8",
            "type": "t_array(t_struct(Proposal)693_storage)dyn_storage"
          },
          {
            "astId": 730,
            "contract": "contracts/facets/QuadraticVoteFacet.sol:QuadraticVoteFacet",
            "label": "proposalsId",
            "offset": 0,
            "slot": "9",
            "type": "t_array(t_uint256)dyn_storage"
          }
        ],
        "numberOfBytes": "320"
      },
      "t_struct(Counter)123_storage": {
        "encoding": "inplace",
        "label": "struct Counters.Counter",
        "members": [
          {
            "astId": 122,
            "contract": "contracts/facets/QuadraticVoteFacet.sol:QuadraticVoteFacet",
            "label": "_value",
            "offset": 0,
            "slot": "0",
            "type": "t_uint256"
          }
        ],
        "numberOfBytes": "32"
      },
      "t_struct(Option)657_storage": {
        "encoding": "inplace",
        "label": "struct Option",
        "members": [
          {
            "astId": 652,
            "contract": "contracts/facets/QuadraticVoteFacet.sol:QuadraticVoteFacet",
            "label": "index",
            "offset": 0,
            "slot": "0",
            "type": "t_uint256"
          },
          {
            "astId": 654,
            "contract": "contracts/facets/QuadraticVoteFacet.sol:QuadraticVoteFacet",
            "label": "optionText",
            "offset": 0,
            "slot": "1",
            "type": "t_string_storage"
          },
          {
            "astId": 656,
            "contract": "contracts/facets/QuadraticVoteFacet.sol:QuadraticVoteFacet",
            "label": "vote",
            "offset": 0,
            "slot": "2",
            "type": "t_uint256"
          }
        ],
        "numberOfBytes": "96"
      },
      "t_struct(Proposal)693_storage": {
        "encoding": "inplace",
        "label": "struct Proposal",
        "members": [
          {
            "astId": 668,
            "contract": "contracts/facets/QuadraticVoteFacet.sol:QuadraticVoteFacet",
            "label": "id",
            "offset": 0,
            "slot": "0",
            "type": "t_uint256"
          },
          {
            "astId": 670,
            "contract": "contracts/facets/QuadraticVoteFacet.sol:QuadraticVoteFacet",
            "label": "creator",
            "offset": 0,
            "slot": "1",
            "type": "t_address"
          },
          {
            "astId": 672,
            "contract": "contracts/facets/QuadraticVoteFacet.sol:QuadraticVoteFacet",
            "label": "title",
            "offset": 0,
            "slot": "2",
            "type": "t_string_storage"
          },
          {
            "astId": 674,
            "contract": "contracts/facets/QuadraticVoteFacet.sol:QuadraticVoteFacet",
            "label": "description",
            "offset": 0,
            "slot": "3",
            "type": "t_string_storage"
          },
          {
            "astId": 677,
            "contract": "contracts/facets/QuadraticVoteFacet.sol:QuadraticVoteFacet",
            "label": "proposalType",
            "offset": 0,
            "slot": "4",
            "type": "t_enum(ProposalType)646"
          },
          {
            "astId": 680,
            "contract": "contracts/facets/QuadraticVoteFacet.sol:QuadraticVoteFacet",
            "label": "proposalStatus",
            "offset": 1,
            "slot": "4",
            "type": "t_enum(ProposalStatus)650"
          },
          {
            "astId": 682,
            "contract": "contracts/facets/QuadraticVoteFacet.sol:QuadraticVoteFacet",
            "label": "startDate",
            "offset": 0,
            "slot": "5",
            "type": "t_uint256"
          },
          {
            "astId": 684,
            "contract": "contracts/facets/QuadraticVoteFacet.sol:QuadraticVoteFacet",
            "label": "duration",
            "offset": 0,
            "slot": "6",
            "type": "t_uint256"
          },
          {
            "astId": 688,
            "contract": "contracts/facets/QuadraticVoteFacet.sol:QuadraticVoteFacet",
            "label": "options",
            "offset": 0,
            "slot": "7",
            "type": "t_array(t_struct(Option)657_storage)dyn_storage"
          },
          {
            "astId": 692,
            "contract": "contracts/facets/QuadraticVoteFacet.sol:QuadraticVoteFacet",
            "label": "voters",
            "offset": 0,
            "slot": "8",
            "type": "t_array(t_struct(Voter)666_storage)dyn_storage"
          }
        ],
        "numberOfBytes": "288"
      },
      "t_struct(Voter)666_storage": {
        "encoding": "inplace",
        "label": "struct Voter",
        "members": [
          {
            "astId": 659,
            "contract": "contracts/facets/QuadraticVoteFacet.sol:QuadraticVoteFacet",
            "label": "voterAddress",
            "offset": 0,
            "slot": "0",
            "type": "t_address"
          },
          {
            "astId": 662,
            "contract": "contracts/facets/QuadraticVoteFacet.sol:QuadraticVoteFacet",
            "label": "optionIndexes",
            "offset": 0,
            "slot": "1",
            "type": "t_array(t_uint256)dyn_storage"
          },
          {
            "astId": 665,
            "contract": "contracts/facets/QuadraticVoteFacet.sol:QuadraticVoteFacet",
            "label": "optionVotes",
            "offset": 0,
            "slot": "2",
            "type": "t_array(t_uint256)dyn_storage"
          }
        ],
        "numberOfBytes": "96"
      },
      "t_uint256": {
        "encoding": "inplace",
        "label": "uint256",
        "numberOfBytes": "32"
      }
    }
  }
}